:020000040800F2
:10000000400A00204D020008A949000833470008B3
:10001000A5490008A31F0008314C0008000000009B
:10002000000000000000000000000000AF490008D0
:10003000C91F000800000000AD490008B1490008D0
:1000400067020008670200086702000867020008EC
:1000500067020008670200086702000867020008DC
:1000600067020008670200086702000867020008CC
:10007000B91F00086702000867020008670200084D
:1000800067020008670200086702000867020008AC
:10009000A91F00086702000867020008670200083D
:1000A000670200086702000867020008670200088C
:1000B000670200086702000867020008670200087C
:1000C000670200086702000867020008670200086C
:1000D000670200086702000867020008D54B0008A5
:1000E000670200086702000867020008670200084C
:1000F000670200086702000867020008670200083C
:10010000670200086702000867020008670200082B
:100110006702000867020008CD490008670200086E
:10012000670200086702000867020008670200080B
:1001300067020008670200086702000867020008FB
:1001400067020008670200086702000867020008EB
:10015000670200086702000867020008214C0008D7
:1001600067020008670200086702000867020008CB
:10017000670200086702000867020008000000002C
:10018000670200086702000800F002F800F04FF86C
:100190000AA090E8000C82448344AAF10107DA45E2
:1001A00001D100F044F8AFF2090EBAE80F0013F0E5
:1001B000010F18BFFB1A43F0010318474864000001
:1001C00068640000103A24BF78C878C1FAD8520792
:1001D00024BF30C830C144BF04680C6070470000C1
:1001E0000023002400250026103A28BF78C1FBD840
:1001F000520728BF30C148BF0B607047662906F020
:100200002681002070471FB506F017F900F080FC2A
:1002100004000020002105F097FE401C60600020D3
:10022000002105F07BFEE0601FBD10B510BD00F0A1
:1002300097FD1146FFF7E7FF05F02CFE01F010F8DF
:1002400003B4FFF7F2FF03BC01F050F80948804700
:1002500009480047FEE7FEE7FEE7FEE7FEE7FEE7A8
:10026000FEE7FEE7FEE7FEE704480549054A064BC0
:1002700070470000B94900088901000840040020C7
:10028000400A0020400600204006002053EA020CED
:1002900000F069802DE9F04B4FF00006002B1FBFE6
:1002A000B3FA83F503FA05F424FA05F65E4012BFAB
:1002B0001643B2FA82F502FA05F4C5F120051EBF15
:1002C00022FA05FC44EA0C04203556EA044C4FEAB5
:1002D000144418BF641C4FF000084FF0000990420E
:1002E00071EB030C39D3002919BFB1FA81F701FA78
:1002F00007F6B0FA80F700FA07F6C7F120071EBF2D
:1003000020FA07FC46EA0C062037B6FBF4FCA7EB04
:100310000507103F07F01F0BCBF120060CFA0BFB73
:100320002CFA06F644BFB3460026202FA4BF5E4633
:100330004FF0000B5BEA060C08BF4FF0010B19EB06
:100340000B09ABFB027C48EB0608C01B06FB02CC8A
:100350000BFB03CC71EB0C01C1E70B460246414697
:100360004846BDE8F08B13B54FF000004FF0000198
:10037000AFF30080BDE81C40704700000FB41CB50F
:10038000084B06AA7B4469460090059800F057FB8D
:1003900004460020694600F065FB20461CBC5DF861
:1003A00014FB0000DD0600002DE9F0474FF0000AC5
:1003B00089460446C0F820A02046E1688847002806
:1003C00076D0252806D0D4E901219047206A401C28
:1003D0002062F1E7E168204600258847C4F81CA0A8
:1003E00006460027C4F818A02A2E09D0304605F08A
:1003F00001FD38B304EB8708303EC8F8186019E0F7
:1004000059F8041B204604EB87029161E168884794
:10041000012F064618D1E069002820DA25F02005D2
:100420001DE0D8F8180000EB800006EB40003038E3
:10043000C8F818002046E1688847064605F0DAFC4F
:100440000028EED1012F0AD02E2E08D12046E168D7
:1004500088477F1C0646022F45F02005C4DBA069B3
:10046000002803DA404245F00105A061E80701D009
:1004700025F01005B6B1A6F14100192802D82036A2
:1004800045F400654A463146204625604D46FFF753
:10049000B5FE58B1012806D0ED1D25F0070000F18A
:1004A000080989E704E005F1040985E730468AE791
:1004B000206ABDE8F08740EA010370B59B072ED1A2
:1004C0004FF00136042A2AD308C810C99D1B9D434A
:1004D000121F15EAC61517D0D8B2E1B2401A50EA79
:1004E000056110D198B2A1B2401A50EA05410AD173
:1004F00023F07F4024F07F41401A50EA052102D1C9
:10050000180EA0EB146070BDA342DBD018BA21BA5C
:10051000884201D9012070BD4FF0FF3070BD0AB98B
:10052000002070BD10F8013B11F8014B63B1A342EC
:100530000AD1521E08D010F8013B11F8014B1BB133
:10054000A34201D1521EEDD1181B70BD10B5203A47
:10055000C0F00B80B1E81850203AA0E81850B1E87C
:100560001850A0E81850BFF4F5AF5FEA027C24BF32
:10057000B1E81850A0E8185044BF18C918C0BDE829
:1005800010405FEA827C24BF51F8043B40F8043BF2
:1005900008BF7047D20728BF31F8023B48BF11F8A7
:1005A000012B28BF20F8023B48BF00F8012B704701
:1005B0004FF0000200B5134694469646203922BFFC
:1005C000A0E80C50A0E80C50B1F12001BFF4F7AF47
:1005D000090728BFA0E80C5048BF0CC05DF804EB29
:1005E000890028BF40F8042B08BF704748BF20F897
:1005F000022B11F0804F18BF00F8012B7047704795
:100600007047704710B500F087FA006810BD10B54C
:10061000044600F081FA046010BD70472DE9FF4FD9
:100620000C461E464FF0FF378BB0D2E90001DDF8D3
:1006300060800A908A46C1F30A5505B93D460021FB
:1006400008464FF00000BAF1000F00F4400005DA50
:1006500000EB80004FF4400101EA50004FEA90594E
:10066000B9F1010F00DDB9460A9850EA4A000ED0F0
:1006700044F61050A5F2FF3545432F14B8F1000F92
:100680001ED07542291E1EDDC9F100021CE0B8F122
:10069000010F4FF0000001D0302103E0F24305E0EC
:1006A0002154401CB042FBDB304600220021215483
:1006B0000B99C1F80880C1E900200FB0BDE8F08FA8
:1006C000BD1B6D1CDEE74A4600DA694206A800F051
:1006D000D5FA06AB93E8070003AB83E80700504662
:1006E0000A9901F051F88DE80700A0F500501F3875
:1006F00000900398002D09DD42F21F014A4608448C
:1007000003A90390684601F0DAFA08E0A0F500506A
:100710004A461F3803A90390684601F0F8FA8DE8AD
:1007200007000004000C03D04FF0FF30410800E048
:100730001046B8F1000F03D00022009215461EE0CB
:10074000751E05D400F0ECF9303262556D1EF9D5F6
:10075000B3460122084302D000227F1C04E0207827
:10076000302801D100227F1E002A099786D01DE083
:10077000112D07DA00F0D4F9303262556D1C50EAC1
:100780000102F5D1084302D00098C8B10EE0002163
:10079000681E05E0235C625C63542254401E491CC1
:1007A0008142F7DBAB46A81B401E0990002004F8ED
:1007B0000B000B98099AC0F80880C0E9002B7CE771
:1007C00011264FF0000859E72DE9F04F88460446FE
:1007D000D21D22F0070191B0D1E90001CDE90A0153
:1007E00005F0E4F902460B98C00F01D02D2007E078
:1007F0002068810701D52B2002E0202101EAC000FA
:10080000032A099001D0072A05DB0346414620460A
:1008100000F0D4F90BE12078800601D5E06900E012
:100820000620B8F1650F814606D0B8F1660F18D0E2
:10083000B8F1670F70D131E00020B9F1110F0090CD
:1008400001DB112301E009F101030AAA01A90CA8A7
:10085000FFF7E4FEDDE90C70002609F1010583468F
:1008600047E001204B4600904FF000470AAA01A93B
:100870000CA8FFF7D3FEDDE90DB00C995D4600260C
:1008800010B909F101000D18B9EB050003D4C0F14E
:10089000FF3609F10105A5EB09002BE0B9F1010FC5
:1008A00001DA4FF001090020B9F1110F009048461C
:1008B00001DD112300E003460AAA01A90CA8FFF7F5
:1008C000ADFEDDE90C704D4600268346207800071A
:1008D0000AD4AB4500DA5D4601A8012D04DD4119BB
:1008E00011F8011C302907D04F4502DA17F1040F27
:1008F00004DA012082460FE06D1EEEE7002F02DCD5
:10090000ED1B3E4403E0781CA84200DD7D1CB81BB3
:1009100000F1010A4FF000472078000703D4AA45F0
:1009200001DB4FF0FF3A0021B7F1004F0DF1430812
:100930008DF8431024D002202B23002F01DA7F42B0
:100940002D230A21021EA0F1010000DC5FB197FBFC
:10095000F1FC97FBF1F201FB1C7C17460CF1300C0B
:1009600008F801CDEEE7A8F1010003702188090520
:1009700001D5452100E06521A0F1010800F8011C26
:1009800009980FA9A1EB0807FF1D00B1012041192B
:1009900001EBEA70A1693844081A401EA061207872
:1009A000C00602D42046AFF30080099828B1D4E9EC
:1009B00001219047206A401C20622078C00622D581
:1009C0002046AFF300801EE0002E04DBB34502DDBD
:1009D00001A8805D00E03020D4E901219047206A21
:1009E000401C2062761CAAF101005FEA000A0AD1CD
:1009F00000F08EF8C0680168405CD4E9012190479E
:100A0000206A401C2062281EA5F10105DCDC07E0FD
:100A1000D4E9012118F8010B9047206A401C20629C
:100A2000381EA7F10107F3DC2046AFF30080032056
:100A300011B043E601694A1C02610878704700B5AD
:100A40008FB0CDE901310021059105497944CDE907
:100A5000031011466846FFF7A7FC0FB000BD000069
:100A6000E5FFFFFF0A6802F8010B0A60704700000B
:100A70000FB4002300B589B00CA900910B99CB608D
:100A8000204B7B440693204B7B44079304236FF059
:100A90000042CDE901321D4A7A446B460892024673
:100AA000002005F036FD09B05DF814FB70B5064670
:100AB0004FF0FF3015460C46324686B00091CDE926
:100AC000010169460020049004A8FFF7D1FF034606
:100AD0000498211825B108B10A4600E022462A6090
:100AE00000280DD0002B02DD0098884208D0324645
:100AF000081B69460094CDE9010404A8FFF7B8FF7C
:100B000006B070BDB7010000CF0100000F0100006A
:100B1000004870470004002000487047E0030020B0
:100B200030B5B0F10A024FEA900E71F100034EEABF
:100B3000817EB0EB0E0061EB91014FEA101E4EEA90
:100B4000017E10EB0E0041EB11114FEA102E4EEA20
:100B5000016E10EB0E0041EB11214FEA104E4EEAF0
:100B6000014E10EB0E0041EB1141401841F1000124
:100B70004FEAD00040EA41704FEAD10110EB800506
:100B80004FEA810444EA907444EB01046D1944EB8C
:100B90000404521BA3414FF0000348BF0A3200D5A2
:100BA00030BD401C41F1000130BD10B5044600F0DD
:100BB000FDF80068005D00F0010010BD2DE9F04176
:100BC0001F46044603260168072A01F4006004DB7F
:100BD00008B116A505E016A503E008B115A500E0CB
:100BE00015A521F010002060A069C01EA0610FB102
:100BF000401EA0612046AFF300804FB1D4E901212F
:100C000038469047206A401C2062C01C206206E0E3
:100C1000206AFAE7D4E9012115F8010B9047761E06
:100C2000F8D22046AFF30080BDE8F0814E414E007F
:100C30006E616E00494E4600696E6600426842B1C0
:100C4000016811F8013B23B1521EC0E90012184699
:100C500070470121C160881E704742685AB1C3685D
:100C6000016843B983688B4205D0491E521CC0E914
:100C70000012002070474FF0FF3070472DE9F04719
:100C8000814616468AB0334878440DC88DE80D0079
:100C900030487844801C03AC0DC884E80D0041F650
:100CA0009B300844372190FBF1F290FBF1F5A5F160
:100CB000800501FB12041B3C02D56442012000E0C8
:100CC0000020DFF890A080460027FA44AAF1BE0A6F
:100CD0000DE0E00709D03246684607EB47010AEB12
:100CE000810101F014F88DE8070064107F1C002CCE
:100CF000EFD1184F7F44AC3F18E0E80714D007EB62
:100D000004100DF1180A90E80E008AE80E00C06881
:100D1000F04201D198190890324606A903A800F0C4
:100D2000F6FF03AB83E807006D10641C002DE4D1CF
:100D300032466946B8F1000F03A802D000F0BFFFA9
:100D400001E000F0E4FFC9E90001C9F808200AB099
:100D5000BDE8F0876059000000487047E0030020BC
:100D60007546FFF7F9FFAE4605006946534620F089
:100D70000700854618B020B5FFF776FABDE8204099
:100D80004FF000064FF000074FF000084FF0000B47
:100D900021F00701AC46ACE8C009ACE8C009ACE8FA
:100DA000C009ACE8C0098D467047000010B5FFF7D8
:100DB000AFFE001D10BD00BF915100002DE9FF4F97
:100DC000064689B00878FF2806D0491C2D2805D092
:100DD00000244FF0000908E000200CE00124F8E7AF
:100DE00009EB8903491C00EB43090878FF28F7D178
:100DF00014B1C9F100008146107800252C46AA469E
:100E000029462D2801D02B2804D1521C2D2813D07F
:100E1000002082468B461078FF280FD04FF0000C40
:100E20000A21521CA5FB017804FB018105FB0C1172
:100E3000C5194BEB0104EEE70120EAE70021084663
:100E40004FF00000BAF1000F02D000EB8000400824
:100E5000C0F38158B8F1010F01DD4FF0FF380C9855
:100E600009EB000755EA040009D04FF0020917F515
:100E7000FA7F0BDA4FEACA70C6E900B012E04FEA17
:100E8000CA70C6E900B00DB0BDE8F08FB7F5FA7FC3
:100E90000DDDF0487844D0E90010C6E9001040EAC2
:100EA000CA707060FFF738FEC0F80090EBE7391E9B
:100EB00002DAC8F1000200E0424600DA794206A8F0
:100EC000FFF7DCFE06AB93E8070003AB83E80700FF
:100ED00044F23E005BEA04010090584604D144F21B
:100EE0001E012C465D460091210C0904014306D1E8
:100EF0000099240444EA15442D041039009104F0AB
:100F00007F41014306D10099240244EA15642D0271
:100F10000839009104F07041014306D10099240181
:100F200044EA15742D01091F009104F0404101436A
:100F300006D10099A40044EA9574AD00891E009181
:100F400004F00041084304D100986D196441401E2B
:100F5000009042466846002FCDE9014503A902DD15
:100F600000F0E9FE01E000F0BEFEBAF1000F044619
:100F70000D4601D084F0004440F2FF7724F0004099
:100F8000284303D0C4F30A50B84212D1FFF7C4FD7E
:100F9000C0F80090C4F30A50B8420AD1AE48784471
:100FA000D0E90010C6E9001004F000410843706069
:100FB00069E7C6E9005466E72DE9FF4F1F464FF089
:100FC000000A4FF0FF38454691B0D7E90146CDF809
:100FD0003CA0FFF79DFDC0680168405C1090B969B6
:100FE00012986D1C8847396A814688470028F6D1D7
:100FF000B9F1FF3F0AD0002E24F4D06411DDB9F11D
:101000002B0F08D0B9F12D0F0BD102E0404615B0DF
:101010003AE744F48064B96912986D1C8847761EDB
:101020008146600504A901D52D2000E02B20002E6B
:1010300001F1010B0DF130088DF810003FDDB9F121
:10104000690F08D0B9F1490F05D0B9F16E0F02D080
:10105000B9F14E0F1CD13B4601A8009580E8500223
:10106000DDE912126FF0020005F057FAC11CCED173
:101070000EE0B96912986D1C884781461398761E58
:1010800044F4007405600F98401C002E0F9016DD8C
:10109000B9F1300FEDD0B9F1780F02D0B9F1580F96
:1010A0000DD10F9801280AD13B46CDE90054DDE966
:1010B0001212001F029605F02EFAC11CA7D110993A
:1010C00089453ED144F0800406E01399681CAAF1DA
:1010D000010A44F400740860B9696D1C1298761E08
:1010E000884730288146F0D02BE01099894505D1FA
:1010F000200603D4761E44F0800418E0484604F02D
:1011000079FE08B3761E0DF123018B4544F400747B
:1011100008D2A9F130000BF8010B200607D5AAF17F
:10112000010003E0200602D40AF101008246A00576
:1011300002D51399681C0860B96912986D1C88471C
:101140008146002ED1DC53E0002E51DDB9F1650F50
:1011500002D0B9F1450F4BD1A00549D5B9696D1C35
:101160001298761E24F440748847002E81460CDDC8
:101170002B2804D0B9F12D0F07D144F48074B9693C
:1011800012986D1C8847761E8146E00501D52D21F9
:1011900000E02B2108F8011BCDF8008021E0761E2D
:1011A0000DF13901884544F400740CD2A9F13000E6
:1011B00010F0FF0088F8000002D10099884509D995
:1011C00008F1010806E0E00501D5244801E042F2FB
:1011D0000F708246B96912986D1C88478146139832
:1011E0000560002E04DD484604F004FE0028D6D138
:1011F000F96912988847FF2053468BF8000088F859
:10120000000000200A900B9004AA0CA90AA8FFF77E
:10121000D5FDA00502D46FF00100F8E614F0240F0C
:101220000AD0E00714D13868DDE90A12031D3B60DB
:101230000068C0E900120BE00AA9684604F074FDDA
:10124000E00705D13868009A011D39600068026026
:101250002846DCE68C57000082560000F1D8FFFFDC
:101260000446AFF300802046FEF7EAFF4FF0013C52
:1012700050F8042B51F8043B9A4221D1A2EB0C0305
:10128000934313EACC1317D150F8042B51F8043BC5
:101290009A4215D1A2EB0C03934313EACC130BD162
:1012A00050F8042B51F8043B9A4209D1A2EB0C03ED
:1012B000934313EACC13DBD04FF00000704700BF1C
:1012C000D01A01BAB1FA81F101F0180122FA01F045
:1012D000CB40C1F12001DBB2C0B2C01A2CFA01F33D
:1012E000D11A914311EAC311E6D170470149182080
:1012F000ABBEFEE7260002002DE9FF4F1F464FF070
:101300003C0987B04FF00042DDE9141001F10108FB
:10131000DDF858A002EA4050039000200490834674
:10132000054604460590B969461E08988847AAF103
:10133000010A0290BAF1000F37DD02982E2815D06D
:10134000102100F013FA00282ADB4FF0010B04995A
:10135000014316D0B9F1000F0BDB4A46C11700F06C
:10136000F2F905430C43A9F1040905E001200590B9
:1013700007E008B145F0010501200490059800B987
:10138000361DB969089808F101088847BBF1000FBC
:10139000AAF1010A0290CDD00999C1F80080C9E7ED
:1013A0000298702808D0502806D0F9690898884714
:1013B000BBF1000F14D04FE0002002900120BBF1E0
:1013C000000F049009D0B969089808F1010888470E
:1013D000AAF10109B9F1000F07DCF96908988847FB
:1013E0006FF001000BB0BDE8F08F2B2804D02D2842
:1013F0000CD14FF0FF300490B969089808F101084A
:101400008847A9F10109B9F1000FE6DD411CE4D0DC
:101410000A2100F0ABF90028DFDB029908F101088E
:1014200001EB810100EB41000290B96908988847FF
:101430000A2100F09BF9099AA9F10109B9F1000FFD
:10144000C2F8008001DD0028E7DAF96908988847CA
:101450000499029800FB016655EA040004D004F0E8
:101460004041090002D006E0039898E0A40044EA55
:101470009574AD00B61E04F00041080002D16D194C
:101480006441761E159810F0240F03D04FF00B091D
:101490005C4803E04FF028096FF07D008246564516
:1014A00007DAAAEB06018944B9F1410F01DD4FF0DB
:1014B000410901200021A9F1010200F044F902468E
:1014C00028400B462140084301D0012100E00021C3
:1014D000501E029143F1FF3128402140084301D0C2
:1014E000012000E000200299834651EA0B014FD011
:1014F000002108464FF00000039900F4400039B184
:1015000000EB80004FF4400100EBD07001EA600076
:101510008015012802DD4FF0FF3000E013D0401CA1
:1015200036D0029860B3BBF1000F0CD14A460120BF
:10153000002100F008F928402140084301D0012093
:1015400000E00020E0B101204A46002100F0FBF855
:10155000034640190A4661412D1A8C4111D3B9F155
:10156000400F09DD159810F0240F02D0AAF13406BF
:1015700003E0AAF1170600E0761C00254FF00044B6
:1015800006E05B1E42F1FF3220EA030521EA020475
:10159000CAF10100B04206DA1B49039808430190E2
:1015A000002000900EE0039AC4F3D321E80A0A4316
:1015B000164940EA44500A433146CDE900026846E4
:1015C00004F00EFC159810F0240F0BD01598C007EE
:1015D00015D13868DDE90012031D3B600068C0E9E1
:1015E00000120CE002A8694604F09EFB1598C007A3
:1015F00005D13868029A011D3960006802604046D2
:10160000F0E6000002FCFFFF0000F07F0000F03F6A
:101610002DE9FF4F92461D4685B04FF00041DDE9B0
:10162000124BDDE914727F1E01EA4B50414940F034
:10163000FF4940EA0108002122F0200049280491D6
:1016400002D04E2828D04CE03BA0012607C88DE8E8
:101650000700A9690698641C88477F1E014606D4C6
:101660001DF8060018B121F0200181420BD0E96974
:1016700006988847032E34D0082E32D06FF0010030
:1016800009B0BDE8F08F761C032E01D0082EE0D102
:10169000601CCAF80000DCE7A9690698641C88474A
:1016A0007F1E2AD420F02000412826D1A96906985F
:1016B000641C88477F1E20D420F020004E281CD1B7
:1016C000A9690698641C88477F1E48F4002849F4DD
:1016D0008009CAF8004001D4282806D0E969069894
:1016E00088475FEACB7012D022E0A9690698641C93
:1016F00088477F1E01D4002803DAE96906988847E5
:10170000BCE72928F1D1641CCAF80040E9E71BF0C6
:10171000240F07D028680499031D2B600068C0E9D6
:10172000001805E02868021D2A600068C0F80090D3
:101730002046A5E70000F07F494E46494E495459DE
:10174000000000007047B2F120030AD5C2F1200367
:1017500001FA02F120FA03F300FA02F041EA030170
:10176000704700FA03F14FF0000070473A2800D2AA
:10177000303820F02002412A01D3A2F137008842FC
:1017800001D34FF0FF3070475FEA400C08BF91F083
:10179000000F4FEA8C234FEAC12243EA51514FEA2E
:1017A0001C5018BF00F5F0404FEA300018BF41F060
:1017B00000415FEA6C5C00F02980BCF1FF3F08BF8C
:1017C00040F080407047130C06BF12044FF0100C1D
:1017D0004FF0000C130E04BF12020CF1080C130F93
:1017E00004BF12010CF1040C930F04BF92000CF122
:1017F000020CD30F04BF52000CF1010C11464FF044
:101800000002A0F11F00A0EB0C00704711F0004F88
:1018100008BF704731F000413FF4D5AF0B0C06BF55
:1018200009044FF0100C4FF0000C0B0E04BF09021E
:101830000CF1080C0B0F04BF09010CF1040C8B0F09
:1018400004BF89000CF1020CCB0F04BF49000CF15E
:10185000010CCCF12003A0EB0C0022FA03F302FAF6
:101860000CF241EA030100F10100704720F07F4CC7
:1018700080EA030023F07F47ACEB070303F57C53BA
:1018800000F0004003F1FF032DE980494FEA154BBA
:1018900009B44FEA144325EA0B4E24EA03480FF239
:1018A000042606EB132749083E785FEA320203FB61
:1018B0000667C7F5000707FB06F64FEA54374FEAFD
:1018C000D64606F1020607FB066CCCF1005C4FEA37
:1018D0001C472CEA074C07FB06F40CFB06F504EB4F
:1018E00015464FEA961634BF00204FF000404FEAED
:1018F000D13706FB07FC4FEA1C4C0CFB0BF7D21B45
:1019000003FB0CF761EB07010CFB0EF7B0EB074094
:1019100072EB17420CFB08F734BFA2EB0742B2EBA5
:10192000074261EB17414FEA0C444FEA910706FB6F
:1019300007FC4FEA1C4C0CFB0BF7B0EBC74072EBFB
:10194000573203FB0CF734BFA2EBC742B2EBC742DE
:1019500061EB57310CFB0EF7B0EBC70072EB57721F
:101960000CFB08F734BFA2EBC702B2EBC70261EB76
:101970005771039F4FEA816141EA921104EBCC0455
:101980004FEAD1374FEA826206FB07FC42EA901227
:101990004FEA80604FEA1C4C0CFB0BF7D21B03FB99
:1019A0000CF761EB07010CFB0EF7B0EB074072EB95
:1019B00017420CFB08F734BFA2EB0742B2EB074219
:1019C00061EB17414FEA8C554FEA910704EB9C24D9
:1019D00006FB07FC4FEA1C4C0CFB0BF7B0EBC740B7
:1019E00072EB573203FB0CF734BFA2EBC742B2EBEA
:1019F000C74261EB57310CFB0EF7B0EBC70072EB3F
:101A000057720CFB08F734BFA2EBC702B2EBC70258
:101A100061EB577115EB4C254FEA816141EA921158
:101A20004FEA82624FEAD13742EA901206FB07FC86
:101A300044F100044FEA80604FEA1C4C0CFB0BF7AA
:101A4000D21B03FB0CF761EB07010CFB0EF7B0EBAD
:101A5000074072EB17420CFB08F734BFA2EB0742BA
:101A6000B2EB074261EB174115EB1C154FEA8131D0
:101A700041EA92414FEA823242EA90424FEA803094
:101A80004FEA0C7644F1000448EA03434EEA0B485F
:101A90004FF0000EB2EB080C71EB030724BF624657
:101AA00039464EEB0E0E4FF0000B001852414941E3
:101AB0004BEB0B0BB2EB080C71EB03077BF1000B4C
:101AC00024BF624639464EEB0E0E4FF0000B001855
:101AD000524149414BEB0B0BB2EB080C71EB030786
:101AE0007BF1000B24BF624639464EEB0E0E51EAE5
:101AF000020718BF46F0010616EB0E7655F10002FC
:101B000054F1000103D5BDE88901BDE80088BDE8B6
:101B10008901BDE80048B619524141EB0101A3F12A
:101B20000103704780807F7E7D7C7B7A7978777631
:101B300076757473727171706F6E6E6D6C6C6B6AAA
:101B40006A69686867666665646463636261616048
:101B5000605F5F5E5E5D5D5C5C5B5B5A5A595958C5
:101B6000585757565655555554545353525252512F
:101B7000515050504F4F4F4E4E4D4D4D4C4C4C4B85
:101B80004B4B4A4A4A4949494848484747474746CC
:101B90004646454545444444444343434342424208
:101BA0004241414146EA0646A3F570534FEA1646C4
:101BB00046EA42564FEAD22242EA415210B54FEA73
:101BC000D121A3F1010300F017F820F0004000F14B
:101BD000010C00F0004701EB00501146BCF5006F0E
:101BE00040EA070000D210BD02484FF0000140EA71
:101BF000070010BD0000F07F002B26D4770021D015
:101C00001CB54FEA370703B44FF010004FF0100136
:101C10004FF000000FBCBDE810400BF1010BBBF111
:101C2000010F08BF5FEA170722BF12F1010211F18D
:101C300001014FF0004143F1000300F0004043EA8E
:101C400000007047F9D35708DAE746EA064613F171
:101C5000400F4FEA16461FDD13F1200FDFBF16437A
:101C60000A46002120335B42C8D0C3F1200746EA70
:101C7000064602FA07F74FEA164646EA0706C3F198
:101C8000200722FA03F201FA07F721FA03F14FF0D5
:101C9000000342EA0702B1E746EA020646EA0646C0
:101CA0004FEA164646EA0106BCBF46EA0646360C2F
:101CB0004FF000034FF000024FF000019EE72DE9C6
:101CC000C048934630B491E8380007C831EA400C68
:101CD00048BF34EA430C03D5FFF7C8FDFFF78CFF7C
:101CE000F0BCBDE800882DE9C048934630B491E8C7
:101CF000380007C831EA400C48BF34EA430C03D52A
:101D0000FFF7B4FDFFF74EFFF0BCBDE800882DE9FA
:101D1000C048934630B491E8380007C810F0804FAF
:101D200008BF13F0804F03D100F019F8FFF764FFEC
:101D3000F0BCBDE800882DE9C048934630B491E876
:101D4000380007C810F0804F08BF13F0804F03D150
:101D500000F005F8FFF726FFF0BCBDE8008820F092
:101D60007F4780EA030023F07F4C07EB0C03A3F5C9
:101D70007C5300F00040A3F1FE0392F0000F00F04E
:101D8000B38095F0000F00F077802DE901494FEA0C
:101D900011404FEA144621EA004800FB06FC24EA01
:101DA000064708FB06F607FB08F800FB07F718EBE9
:101DB00006484CEB164C4FEA124B18EB07484FEA1B
:101DC00015464CEB174022EA0B4E0BFB06FC25EAAE
:101DD00006470EFB06F607FB0EFE0BFB07F71EEB96
:101DE000064E4CEB164C4FF000061EEB074E4CEB2C
:101DF000174B18EB0B0840F1000018EB0E0B58EBDB
:101E0000000840F100008F1A4FF000013CBFC943A9
:101E1000661B14BFB5EB040C00213CBFC943F61B85
:101E20004FEA17444EEA8E0E27EA04454FEA1C4754
:101E300004FB07622CEA074C05FB07F70CFB05F6D1
:101E400004FB0CFC16EB074642EB174216EB0C4664
:101E500042EB1C421BEB060658EB0202414146EAEC
:101E60009E0601D5BDE80189B619524141EB010139
:101E7000A3F10103BDE801894FEA14454FEA114778
:101E800024EA054621EA074C05FB07F406FB07F7A1
:101E90000CFB06F105FB0CFC11EB074144EB17446E
:101EA0004FEA124711EB0C4144EB1C4422EA074C69
:101EB00005FB07F206FB07F70CFB06F605FB0CFC1F
:101EC00016EB074642EB174216EB0C4642EB1C455D
:101ED0006A1854F1000148BF7047B619524141EBEE
:101EE0000101A3F10103704795F0000F37D04FEACD
:101EF00011424FEA144721EA024624EA074C02FB4A
:101F000007F106FB07F70CFB06F402FB0CFC14EBD5
:101F1000074441EB17414FEA154714EB0C4441EBE2
:101F20001C4125EA074C02FB07F506FB07F70CFBF3
:101F300006F602FB0CFC16EB074645EB174516EBC5
:101F40000C4645EB1C42121951F1000148BF704785
:101F5000B619524141EB0101A3F1010370474FEA69
:101F600014454FEA114724EA054621EA074C05FBD0
:101F700007F106FB07F70CFB06F24FF0000605FB26
:101F80000CFC12EB074241EB174112EB0C4251EBF8
:101F90001C4148BF7047921841EB0101A3F10103B6
:101FA000704700BFFEE7000010B5024800F05DFB7F
:101FB00010BD0000A400002010B5024800F078FE1B
:101FC00010BD0000A4010020704772B600BFFEE7FC
:101FD00038B502460020009000BF92F83C0001286E
:101FE00001D1022038BD012082F83C0000BF086802
:101FF000092816D91068C0680C780A3C04EB44051F
:102000000724AC40A0431468E0600C780A3C04EB61
:1020100044048868A0401468E46820431468E060C1
:1020200013E0106800690C7804EB44050724AC4009
:10203000A043146820610C7804EB44048868A04035
:10204000146824692043146820614868072817D25F
:102050001068406B0C79641E04EB84051F24AC40AF
:10206000A04314686063088880B20C79641E04EB96
:102070008404A0401468646B20431468606331E0FA
:1020800048680D2817D21068006B0C79E41F04EB28
:1020900084051F24AC40A04314682063088880B2E4
:1020A0000C79E41F04EB8404A0401468246B2043E3
:1020B0001468206316E01068C06A0C790D3C04EBCC
:1020C00084051F24AC40A0431468E062088880B2F5
:1020D0000C790D3C04EB8404A0401468E46A2043AE
:1020E0001468E062194B1A4C1068A04206D10868C7
:1020F000122803D1586840F480005860144C1068CE
:10210000A0421CD10868102802D00868112816D1F6
:10211000586840F400005860086810280FD10D4836
:1021200000680D4CB0FBF4F000EB80004000009024
:1021300002E00098401E009000980028F9D100BFEE
:10214000002082F83C0000BF00BF4BE700230140A5
:10215000002001401000002040420F0070B50446EE
:1021600000250CB9012070BD1549A06A884200D035
:1021700000BF206C30B9204600F024F800206064D5
:1021800084F83C00206C00F0100088B9206C20F42A
:10219000885040F002002064204603F0B7F8002089
:1021A0006064206C20F0020040F00100206400E038
:1021B000012500BF002084F83C0000BF2846D2E77C
:1021C0000100000F10B586B00446142101A8FEF7E7
:1021D000EFF918492068884229D100BF00200090FB
:1021E0001548006840F4806013490860084600689C
:1021F00000F48060009000BF00BF002000900E48F7
:102200001438006840F020000B4914390860084673
:10221000006800F02000009000BF08150190032026
:1022200002900020039001A9044800F067FF06B067
:1022300010BD00000022014044380240001402405A
:1022400010B5024692F82030012B01D0022B06D1A6
:1022500010684069084314686061002010BD506A2E
:1022600040F4802050620120F8E7F0B504460D46A6
:102270001E4694F8207020688368A86800B900E0C2
:1022800000BF012F01D0022F7DD103F0806030B953
:1022900003F0006018B903F0805000287ED0C3F32B
:1022A0000161012088403060A86860B9B5F800C0BD
:1022B000E86840EA4C5C206800F5C07000EB011053
:1022C000C0F800C00FE0D5E901C040EACC00D5F865
:1022D0000CC040EA0C00D4F800C00CF5C07C0CEB3C
:1022E000011CCCF80000D5F810C0206800F5C070C3
:1022F00000EB0110C0F804C0287D01280ED1206831
:1023000000F5C07000EB0110406840F4807C20684C
:1023100000F5C07000EB0110C0F804C0D0790006D1
:1023200092F806C040EA0C4092F805C040EA0C2042
:1023300092F804C040EA0C00D4F800C00CF5C07C50
:102340000CEB011CCCF80C00D078000692F802C00F
:1023500040EA0C4092F801C040EA0C2092F800C01C
:1023600040EA0C00D4F800C00CF5C07C0CEB011C5A
:10237000CCF80800206800F5C07000EB0110006880
:1023800040F0010C01E00FE008E0206800F5C070AB
:1023900000EB0110C0F800C00020F0BD606A40F4FE
:1023A000001060620120F8E7606A40F480206062FB
:1023B0000120F2E7F0B504460A4694F82050012DBA
:1023C00001D0022D7ED1424901F50071086840F02C
:1023D00001000860086820F47C5008600868566AAC
:1023E00040EA06200860107D00F01F06012000FA78
:1023F00006F3C8699843C861A1F50071D069C8B9EE
:10240000D1F80C029843C1F80C02908880B29689EA
:1024100040EA064601F51070576940F837601088A9
:1024200080B2168940EA064601F51070576900EB44
:10243000C7004660D069012819D1D1F80C021843B1
:10244000C1F80C02908880B2168840EA064601F571
:102450001070576940F83760908980B2168940EA59
:10246000064601F51070576900EBC7004660906999
:1024700028B9D1F804029843C1F8040204E0D1F865
:1024800004021843C1F80402106928B9D1F81402F3
:102490009843C1F8140204E0D1F814021843C1F8BB
:1024A0001402106A012804D1D1F81C021843C1F8A3
:1024B0001C02D1F8000220F00100C1F80002002047
:1024C000F0BDFFE7606A40F4802060620120F7E71A
:1024D00000640040704770B5044694F82050012D08
:1024E00001D0022D7DD151B92068C06800F00300F1
:1024F00080B9606A40F400106062012070BD2068FD
:10250000006900F0030028B9606A40F400106062BE
:102510000120F3E7206800F5D87000EB0110006897
:1025200000F004009060906840B9206800F5D87011
:1025300000EB01100068400D106007E0206800F516
:10254000D87000EB01100068C0085060206800F5EA
:10255000D87000EB0110006800F00200D060206825
:1025600000F5D87000EB0110406800F00F0008285B
:1025700002D30820106108E0206800F5D87000EB55
:102580000110406800F00F001061206800F5D8705D
:1025900000EB0110406800F47F40000A9061206861
:1025A00000F5D87000EB01104068000C5061206805
:1025B00000F5D87000EB011080681870206800F5F5
:1025C000D87000EB0110806800F47F40000A58705A
:1025D000206800F5D87000EB0110806800F47F00DF
:1025E00000E03CE0000C9870206800F5D87000EB2B
:1025F00001108068000ED870206800F5D87000EBDC
:102600000110C0681871206800F5D87000EB011047
:10261000C06800F47F40000A5871206800F5D87047
:1026200000EB0110C06800F47F00000C9871206876
:1026300000F5D87000EB0110C068000ED87131B9F8
:102640002068C06840F020002668F06005E020683F
:10265000006940F020002668306100204EE7606A83
:1026600040F480206062012048E72DE9F05F0446D5
:102670000025206846692068D0F8049020688768A3
:102680002068D0F80CA02068D0F810B02068D0F8EE
:10269000188006F00100002855D007F00100C0B1F5
:1026A00001202168886007F0020018B1204600F080
:1026B0008EFA0EE007F0040010B145F4006508E062
:1026C00007F0080010B145F4805502E0204600F004
:1026D0007DFA07F48070C8B14FF48070216888607B
:1026E00007F4007018B1204600F073FA0EE007F40A
:1026F000806010B145F4005508E007F4006010B1A7
:1027000045F4804502E0204600F062FA07F480308C
:10271000C8B14FF480302168886007F4003018B1E8
:10272000204600F058FA0EE007F4802010B145F47E
:10273000004508E007F4002010B145F4803502E0C0
:10274000204600F047FA06F0080038B10AF0100001
:1027500020B145F4007510202168C86006F004001F
:1027600040B10AF0080028B108202168C86020465E
:1027700000F0A6F906F0020038B12068C06800F049
:10278000030010B1204600F09DF906F0400038B17A
:102790000BF0100020B145F480651020216808611D
:1027A00006F0200040B10BF0080028B10820216895
:1027B0000861204600F0D8F906F0100038B1206812
:1027C000006900F0030010B1204600F0CEF906F4D5
:1027D000003040B109F0100028B110202168486095
:1027E000204600F0C3F906F4803040B109F008003B
:1027F00028B1082021684860204600F0EDF906F471
:10280000004088B309F0040078B306F4807020B16A
:1028100008F0010008B145F0010506F4007020B190
:1028200008F0020008B145F0020506F4806020B10E
:1028300008F0040008B145F0040506F40060A0B1FA
:1028400008F0700088B108F07000402817D006DC4E
:1028500010280BD020280CD0302819D10CE050289B
:1028600010D0602814D110E01DE019E045F00805F3
:102870000FE045F010050CE045F0200509E045F0BB
:10288000400506E045F0800503E045F4807500E072
:1028900000BF00BF2068806920F070002168886157
:1028A0000420216848602DB1606A28436062204698
:1028B000FFF710FEBDE8F09F70B504460CB901208B
:1028C00070BD94F8200010B9204600F0AFF82068E1
:1028D000006840F001002168086000F007FD05462F
:1028E0000DE000F003FD401B0A2808D9606A40F49F
:1028F00000306062052084F820000120E0E72068B5
:10290000406800F001000028EBD02068006820F04B
:1029100002002168086000F0E9FC05460DE000F0C7
:10292000E5FC401B0A2808D9606A40F40030606268
:10293000052084F820000120C2E72068406800F0EC
:1029400002000028EBD1207E012806D12068006813
:1029500040F080002168086005E02068006820F0F1
:10296000800021680860607E012806D12068006828
:1029700040F040002168086005E02068006820F011
:10298000400021680860A07E012806D12068006808
:1029900040F020002168086005E02068006820F011
:1029A000200021680860E07E012806D120680068C8
:1029B00020F010002168086005E02068006840F001
:1029C000100021680860207F012806D12068006877
:1029D00040F008002168086005E02068006820F0E9
:1029E000080021680860607F012806D1206800681F
:1029F00040F004002168086005E02068006820F0CD
:102A0000040021680860D4E90201084321690843F1
:102A1000616908436168491E08432168C861002054
:102A20006062012084F82000002049E710B586B0DC
:102A30000446142101A8FDF7BBFD1E492068884209
:102A400035D100BF002000901B48006840F00070A6
:102A5000194908600846006800F00070009000BF47
:102A600000BF0020009014481038006840F00800B3
:102A70001149103908600846006800F0080000900D
:102A800000BF032001900220029000200390032049
:102A900004900920059001A9084800F02FFB0022AE
:102AA0001146142000F0AEFC142000F097FC06B094
:102AB00010BD00000064004040380240000C02409D
:102AC0007047000010B58AB0044601AB03AA00218C
:102AD0002046FFF700FD0398B0F5007F1FD903984B
:102AE000B0F5017F1BD80399491EC8B29DF80710A5
:102AF0009DF8062041EA022109B200EB4002164B84
:102B000023F812109DF809109DF8082041EA0221CF
:102B100009B200EB400203EB4202518000BF0F49B3
:102B20002068884215D10E48406890B11C2203A944
:102B30000C48FDF70BFD002005E001A90A5C0949DE
:102B40001C310A54401C0828F7DB05484168054839
:102B500088470AB010BD00006403002000640040F4
:102B6000140000207C03002070477047704770B548
:102B7000044694F82000012822D1022084F8200085
:102B80002068006820F001002168086000F0AEFBBA
:102B900005460DE000F0AAFB401B0A2808D9606A30
:102BA00040F400306062052084F82000012070BDF0
:102BB0002068406800F001000028EBD16062F6E771
:102BC000606A40F4002060620120F0E770477047BF
:102BD0007047704770477047704770B50446A56DE1
:102BE00000F084FB064694F83500022808D08020C7
:102BF000606500BF002084F8340000BF012070BD74
:102C00002068006820F0160021680860206840698C
:102C100020F0800021684861206C08B9A06C28B1C0
:102C20002068006820F008002168086020680068BB
:102C300020F001002168086010E000F057FB801BC5
:102C400005280BD920206065032084F8350000BFDB
:102C5000002084F8340000BF0320D0E7206800681B
:102C600000F001000028E8D194F85C103F20884073
:102C7000A860012084F8350000BF002084F83400EB
:102C800000BF00BFBBE7014691F83500022803D022
:102C90008020486501207047052081F835000868CC
:102CA000006820F001000A6810600020F3E70000CF
:102CB000F8B50446002000908C4800684FF4165187
:102CC000B0FBF1F7A56D2E6894F85C1008208840E1
:102CD000304098B12068006800F0040070B12068AE
:102CE000006820F004002168086094F85C10082057
:102CF0008840A860606D40F00100606594F85C1049
:102D000001208840304068B12068406900F08000B0
:102D100040B194F85C1001208840A860606D40F0DC
:102D20000200606594F85C1004208840304068B16F
:102D30002068006800F0020040B194F85C100420A4
:102D40008840A860606D40F00400606594F85C10F5
:102D500010208840304078B32068006800F00800F8
:102D600050B394F85C1010208840A8602068006878
:102D700000F4802080B12068006800F4002028B9A9
:102D8000206CC8B12046216C884715E0A06C98B132
:102D90002046A16C88470FE02068006800F480702E
:102DA00028B92068006820F0080021680860206CBD
:102DB00010B12046216C884794F85C102020884090
:102DC0003040002865D02068006800F0100000281E
:102DD0005FD094F85C1020208840A86094F83500FB
:102DE000052828D12068006820F0160021680860B6
:102DF0002068406920F0800021684861206C08B993
:102E0000A06C28B12068006820F0080021680860E4
:102E100094F85C103F208840A860012084F83500B9
:102E200000BF002084F8340000BF206D10B12046A0
:102E3000216D8847F8BD2068006800F4802080B1CB
:102E40002068006800F4002028B9606C10B12046AA
:102E5000616C88471DE0E06BD8B12046E16B884784
:102E600017E02068006800F4807068B92068006886
:102E700020F0100021680860012084F8350000BFB0
:102E8000002084F8340000BFE06B10B12046E16BF5
:102E90008847606D38B3606D00F00100F0B1052027
:102EA00084F835002068006820F00100216808607F
:102EB00000BF0098401C0090B84200D905E020688F
:102EC000006800F001000028F3D100BF012084F861
:102ED000350000BF002084F8340000BFE06C10B162
:102EE0002046E16C884700BFA4E7000010000020E6
:102EF0002DE9F0410446002500F0F8F9074614B921
:102F00000120BDE8F081606A00B100BF022084F8B2
:102F1000350000BF002084F8340000BF206800683E
:102F200020F00100216808600AE000F0DFF9C01B12
:102F3000052805D920206065032084F83500E0E7E6
:102F40002068006800F001000028EED120680568C4
:102F500021480540D4E901010843E168084321699B
:102F6000084361690843A1690843E1690843216A8C
:102F700008430543606A042803D1D4E90B010843E0
:102F80000543206805602068456925F00705606AEB
:102F90000543606A04280DD1A06A0543E06A48B180
:102FA000204602F079FA28B140206065012084F8BB
:102FB0003500A6E720684561204602F0C3FA0646C0
:102FC00094F85C103F208840B060002060650120CC
:102FD00084F83500002094E73F8010F02DE9F0419F
:102FE00004460D4616461F464FF0000800BF94F8F1
:102FF0003400012802D10220BDE8F081012084F8CC
:10300000340000BF94F83500012811D1022084F863
:103010003500002060653B4632462946204602F0D6
:1030200025FA2068006840F001002168086006E089
:1030300000BF002084F8340000BF4FF00208404673
:10304000DAE72DE9F04704460D4616461F464FF0D5
:103050000008D4F8589000BF94F83400012802D139
:103060000220BDE8F087012084F8340000BF94F806
:103070003500012825D1022084F835000020606544
:103080003B4632462946204602F0F0F994F85C109F
:103090003F208840C9F808002068006840F016000A
:1030A00021680860206C28B12068006840F00800A2
:1030B000216808602068006840F00100216808600D
:1030C00006E000BF002084F8340000BF4FF0020883
:1030D0004046C6E770B5044600F008F906462546A6
:1030E000681C10B104480078054400BF00F0FEF8E9
:1030F000801BA842FAD370BD0C000020F8B5024630
:103100000B460025002400200021D5E0012606FA08
:1031100001F51E6806EA0504AC4273D11E7906F07B
:103120000306012E04D01E7906F00306022E13D1E9
:1031300090684F000326BE40B0434F00DE68BE409B
:1031400030439060506801268E40B0431E79C6F32C
:1031500000168E40304350601E7906F00306032EA1
:1031600009D0D0684F000326BE40B0434F009E6890
:10317000BE403043D0601E7906F00306022E13D104
:10318000CF0802F1200656F827004E07F70E0F264B
:10319000BE40B0434F07FF0E1E69BE403043CF080C
:1031A00002F1200646F8270010684F000326BE40B3
:1031B000B0431E7906F003064F00BE403043106056
:1031C0005E6806F44036002E75D000BF00260096DB
:1031D0003B4E366846F48046394F3E603E46366880
:1031E00006F48046009600BF364E8F0856F827003A
:1031F0008E07370F0F26BE40B043334EB24202D186
:10320000002624E057E0314EB24201D101261EE0F3
:103210002F4EB24201D1022619E02E4EB24201D108
:10322000032614E02C4EB24201D104260FE02B4EAF
:10323000B24201D105260AE0294EB24201D106264A
:1032400005E0284EB24201D1072600E008268F078C
:103250003F0FBE4030431B4E8F0846F82700224EDA
:103260003068A0435E6806F4801606B120431E4E07
:103270003060361D3068A0435E6806F4001606B163
:103280002043194E361D3060174E361F3068A0435C
:103290005E6806F4003606B12043134E361F3060D8
:1032A000361F3068A0435E6806F4803606B12043BE
:1032B0000D4E083E3060491C1029FFF427AFF8BDC1
:1032C0004438024008380140000002400004024037
:1032D00000080240000C02400010024000140240AE
:1032E00000180240001C0240083C014001480068F0
:1032F0007047000004000020034800680349097873
:103300000844014908607047040000200C000020B8
:1033100010B50D48006840F400700B49086008467D
:10332000006840F4806008600846006840F48070DF
:103330000860032000F0A4F80F2000F007F800F068
:103340002BF8002010BD0000003C024070B5044680
:103350000E4800784FF47A71B1FBF0F00C4909681F
:10336000B1FBF0F5284600F02DFC08B1012070BD3E
:10337000102C07D200222146501E00F043F80548C9
:10338000046001E00120F2E70020F0E70C000020DB
:10339000100000200800002008B500BF00200090A9
:1033A0000D48006840F480400B49086008460068FA
:1033B00000F48040009000BF00BF00200090081F74
:1033C000006840F08050091F08600846006800F05F
:1033D0008050009000BF08BD4438024001460846B6
:1033E00000280DDB00BF00BF00F01F0301229A4040
:1033F00043099B0003F1E023C3F8002100BF00BF95
:1034000000BF70472DE9F05F80460D461646002745
:1034100002F0C4FB074639462A46334601F007004E
:10342000C0F1070ABAF1040F02D94FF0040A01E013
:10343000C0F1070AD14600F1040ABAF1070F02D21F
:103440004FF0000A01E0A0F1030AD4464FF0010A50
:103450000AFA09FAAAF1010A0AEA020A0AFA0CFAB5
:103460004FF0010B0BFA0CFBABF1010B0BEA030B5A
:103470004AEA0B042146404602F07CFBBDE8F09F7F
:1034800000BF00F00702064B19684FF6FF03194012
:10349000044B0B4343EA0221014B196000BF704704
:1034A0000CED00E00000FA0570B504460D460CB9BD
:1034B000012070BD5848006800F00700A84209D2FA
:1034C00055490D700846006800F00700A84201D079
:1034D0000120EEE7207800F0020002281DD12078BC
:1034E00000F00400042805D14C48006840F4E05086
:1034F0004A490860207800F00800082805D14748AC
:10350000006840F46040454908604448006820F085
:10351000F000A168084341490860207800F00100EC
:10352000A8B36068012807D13C4808380068C0F398
:103530004040B8B90120BCE76068022802D060684A
:10354000032807D1354808380068C0F3406048B9FF
:103550000120AEE7314808380068C0F3400008B9E0
:103560000120A6E72D48006820F0030061680843A9
:103570002A490860FFF7BAFE064609E0FFF7B6FEE3
:10358000801B41F28831884202D9032091E707E08D
:103590002248006800F00C006168B0EB810FEDD1AB
:1035A0001D48006800F00700A84209D91A490D70AB
:1035B0000846006800F00700A84201D0012078E723
:1035C000207800F00400042807D11448006820F493
:1035D000E050E168084311490860207800F00800D5
:1035E000082808D10D48006820F46040216940EAAD
:1035F000C1000A49086000F03FF808490968C1F3B2
:103600000311074A515CC840064908600648006833
:10361000FFF79CFE00204CE7003C024008380240C7
:1036200056650008100000200800002001480068CE
:10363000704700001000002000B5FFF7F7FF0449B5
:103640000968C1F38221034A515CC84000BD0000F3
:10365000083802406665000800B5FFF7E7FF044937
:103660000968C1F34231034A515CC84000BD000003
:1036700008380240666500082DE9F047002400255F
:103680000026A1462548006800F00C0020B104285F
:1036900005D008283AD105E0DFF8849039E0DFF85A
:1036A000849036E01D48001F006800F03F041B486E
:1036B000001F006800F4800078B11A481749091FFC
:1036C0000968C1F38811A0FB01700146224600235E
:1036D0003846FCF7DBFD05460EE011480F49091F8F
:1036E0000968C1F38811A0FB01700146224600233E
:1036F0003846FCF7CBFD05460848001F0068C0F3BC
:103700000140401C4600B5FBF6F902E0DFF81090DE
:1037100000BF00BF4846BDE8F087000008380240FF
:103720000024F400001BB700F8B504460CB90120D2
:10373000F8BD207800F00100002874D0F948006836
:1037400000F00C0004280DD0F648006800F00C00D2
:10375000082813D1F348001F006800F48000B0F57A
:10376000800F0BD1EF4808380068C0F340400028B4
:1037700059D06068002856D10120D9E700BF6068A1
:10378000B0F5803F08D1E7480838006840F4803041
:10379000E449083908601EE06068B0F5A02F0DD13B
:1037A000E0480838006840F48020DE4908390860A5
:1037B0000846006840F4803008600CE0D9480838BA
:1037C000006820F48030D74908390860084600684E
:1037D00020F48020086000BF606890B1FFF786FD8C
:1037E000054606E0FFF782FD401B642801D903204F
:1037F0009EE7CC4808380068C0F340400028F1D06C
:1038000011E0FFF773FD054606E0FFF76FFD401B73
:10381000642801D903208BE7C24808380068C0F348
:1038200040400028F1D1207800F0020002285FD14A
:10383000BC48006800F00C0058B1BA48006800F0BD
:103840000C0008281CD1B748001F006800F4800055
:10385000B0B9B44808380068C0F3400020B1E0684F
:10386000012801D0012063E7AE480838006820F045
:10387000F800216940EAC100AA490839086037E028
:10388000E06800B30120A8490860FFF72FFD054656
:1038900006E0FFF72BFD401B022801D9032047E774
:1038A000A04808380068C0F340000028F1D09D48C7
:1038B0000838006820F0F800216940EAC100994901
:1038C0000839086014E0002097490860FFF70EFDF2
:1038D000054606E0FFF70AFD401B022801D9032038
:1038E00026E7904808380068C0F340000028F1D16E
:1038F000207800F0080008282CD16069A8B10120C8
:103900008A490860FFF7F2FC054606E0FFF7EEFC87
:10391000401B022801D903200AE782486C30006866
:10392000C0F340000028F1D014E000207F49086077
:10393000FFF7DCFC054606E0FFF7D8FC401B022839
:1039400001D90320F4E677486C300068C0F34000EA
:103950000028F1D1207800F0040004286FD100275E
:1039600070483830006800F0805088B900BF0020EF
:1039700000906C483830006840F080506949383118
:1039800008600846006800F08050009000BF0127E2
:103990006748006800F48070B0B96548006840F47A
:1039A000807063490860FFF7A1FC054606E0FFF759
:1039B0009DFC401B022801D90320B9E65C48006841
:1039C00000F480700028F2D000BFA068012808D160
:1039D00054486830006840F001005249683108607E
:1039E0001DE0A06805280DD14E486830006840F001
:1039F00004004C49683108600846006840F0010046
:103A000008600CE047486830006820F00100454934
:103A1000683108600846006820F00400086000BFB4
:103A2000A068A8B1FFF762FC054609E0FFF75EFC5D
:103A3000401B41F28831884202D9032078E626E013
:103A4000384868300068C0F340000028EED013E02A
:103A5000FFF74CFC054608E0FFF748FC401B41F22D
:103A60008831884201D9032062E62E486830006818
:103A7000C0F340000028EFD1012F07D1294838308A
:103A8000006820F0805027493831086000BFA069E5
:103A9000002845D02348006800F00C0008285ED0BC
:103AA000A069022846D100201F490866FFF71EFCC6
:103AB000054606E0FFF71AFC401B022801D9032047
:103AC00036E6184808380068C0F340600028F1D195
:103AD000D4E907010843616A40EA81110122A06A22
:103AE000C2EB500041EA00412C20005D41EA006039
:103AF0000C49091F086001200B490866FFF7F6FB17
:103B0000054606E0FFF7F2FB401B022801D903201F
:103B10000EE6044808380068C0F340600028F1D081
:103B20004AE000000838024000004742800E474249
:103B300000700040002021490866FFF7D7FB0546CA
:103B400006E0FFF7D3FB401B022801D90320EFE575
:103B50001B480068C0F340600028F2D12CE0A06947
:103B6000012800D1E4E51648001D0668A069012877
:103B700020D006F48001E06981421BD106F03F01AC
:103B8000206A814216D147F6C0703040616AB0EBBE
:103B9000811F0FD106F440310122A06AC2EB500010
:103BA000B1EB004F06D106F070612C20005DB1EB47
:103BB000006F01D00120BBE50020B9E500004742BD
:103BC0000038024070B504462546681EB0F1807F7B
:103BD00001D301200FE0681E4FF0E02148610F2162
:103BE0004FF0FF3001F0C6FF00204FF0E021886168
:103BF00007200861002070BD7047704730B502464D
:103C00000B4600BF92F83C00012801D1022030BDD4
:103C1000012082F83C0000BF022082F83D001068BD
:103C200044681068816824F07004186804431068C0
:103C30004460184D1068A8421BD01068B0F1804F46
:103C400017D0154D1068A84213D0144D1068A84223
:103C50000FD0134D1068A8420BD0124D1068A84227
:103C600007D0114D1068A84203D0104D1068A8422B
:103C700005D121F08001586801431068816001205E
:103C800082F83D0000BF002082F83C0000BF00BF6A
:103C9000BDE70000000001400004004000080040B3
:103CA000000C0040000401400040014000180040AA
:103CB00010B504460CB9012010BD94F83D0028B998
:103CC000002084F83C00204600F026F8022084F80A
:103CD0003D00211D206800F083FE012084F846008D
:103CE00000BF84F83E0001213F20015540200155CE
:103CF0004120015500BF00BF012084F8420043204D
:103D00000155442001554520015500BF012084F88C
:103D10003D000020D0E7000038B504460D4920687A
:103D2000884216D100BF002000900B48006840F088
:103D30001000094908600846006800F01000009073
:103D400000BF002211463620FFF75CFB3620FFF74C
:103D500045FB38BD0010004040380240014691F854
:103D60003D00012801D001207047022081F83D006C
:103D70000868C06840F001000B68D8601A4B0868FA
:103D800098421BD00868B0F1804F17D0174B0868D5
:103D9000984213D0164B086898420FD0154B08680C
:103DA00098420BD0144B0868984207D0134B086810
:103DB000984203D0124B086898420CD1086880687A
:103DC00000F00702062A0CD00868006840F00100E5
:103DD0000B68186005E00868006840F001000B6897
:103DE00018600020C0E7000000000140000400400F
:103DF00000080040000C0040000401400040014069
:103E000000180040704770B504462068C5682068F7
:103E1000066906F00200022819D105F00200022806
:103E200015D1401F21680861012020772068806932
:103E300000F0030018B12046FFF7E4FF05E020463C
:103E400000F097F8204600F095F80020207706F063
:103E50000400042819D105F00400042815D1C0433A
:103E600021680861022020772068806900F4407092
:103E700018B12046FFF7C6FF05E0204600F079F8AC
:103E8000204600F077F80020207706F00800082888
:103E900019D105F00800082815D1C0432168086130
:103EA000042020772068C06900F0030018B1204684
:103EB000FFF7A8FF05E0204600F05BF8204600F081
:103EC00059F80020207706F01000102819D105F0CD
:103ED0001000102815D1C043216808610820207700
:103EE0002068C06900F4407018B12046FFF78AFFCF
:103EF00005E0204600F03DF8204600F03BF80020A9
:103F0000207706F0010048B105F0010030B16FF0F4
:103F1000010021680861204600F02DF806F08000BD
:103F2000802809D105F08000802805D1C043216890
:103F300008612046FFF760FE06F04000402809D1E6
:103F400005F04000402805D1C043216808612046A3
:103F500000F012F806F02000202809D105F020001A
:103F6000202805D1C043216808612046FFF745FE9F
:103F700070BD7047704770477047704770B5044612
:103F8000002520684069C0F3C01594F8410021283D
:103F900017D1B5B100BF00BF2168143151E8001F2F
:103FA00021F080002168143141E80002002AF3D199
:103FB00000BFA06B10B1A06BFEF70FFE204601F012
:103FC0000EFD20684069C0F3801594F84200222855
:103FD00017D1B5B100BF00BF2168143151E8001FEF
:103FE00021F040002168143141E80002002AF3D199
:103FF00000BFE06B10B1E06BFEF7EFFD204601F073
:10400000B8FC002070BD70472DE9F84F04462068C9
:1040100005682068C668206847694FF00009CA46ED
:1040200005F00F09B9F1000F0AD105F0200038B1F1
:1040300006F0200020B1204601F0DCFBBDE8F88F3F
:10404000B9F1000F7CD007F0010018B906F49070A8
:10405000002875D005F0010030B106F4807018B169
:10406000606C40F00100606405F0040030B107F0BE
:10407000010018B1606C40F00200606405F00200BD
:1040800030B107F0010018B1606C40F004006064CA
:1040900005F0080048B106F0200010B907F0010053
:1040A00018B1606C40F008006064606C002846D075
:1040B00005F0200028B106F0200010B1204601F0E4
:1040C00099FB20684069C0F3801A606C00F008001A
:1040D00010B9BAF1000F2DD0204601F04AFC20683B
:1040E000406900F04000402820D100BF00BF216897
:1040F000143151E8001F21F040002168143141E8DB
:104100000002002AF3D100BFE06B50B17F48E16BA1
:104110000865E06BFEF7B7FD88B1E06B016D88477D
:104120000DE02046FFF76FFF09E009E02046FFF7AA
:104130006AFF04E02046FFF766FF002060647DE729
:10414000206B012877D105F01000002873D006F00D
:1041500010000028FAD000BF0020009020680068FE
:10416000009020684068009000BF2068406900F01F
:104170004000402870D1E06B006840681FFA80F86A
:10418000B8F1000F58D0A08D404555DDA4F82E8021
:10419000E06BC069B0F5807F43D000BF00BF2168ED
:1041A0000C3151E8001F21F4807021680C3141E886
:1041B0000002002AF3D100BF00BF00BF2168143104
:1041C00051E8001F21F001002168143141E800028C
:1041D000002AF3D100BF00BF00BF2168143151E8AD
:1041E000001F21F040002168143141E80002002A3C
:1041F000F3D100BF202084F842000020206300BFDC
:1042000000BF21680C3151E8001F21F01000216827
:104210000C3141E80002002AF3D100BFE06BFEF749
:10422000DCFC02206063A08DE28D801A81B2204602
:10423000FFF7A3FE0EE052E0A08D40450AD1E06BEF
:10424000C069B0F5807F05D102206063A18D204652
:10425000FFF793FEF2E6FFE7A08DE18D401A1FFA0B
:1042600080F8E08DD0B3B8F1000F37D000BF00BFA9
:1042700021680C3151E8001F21F4907021680C3145
:1042800041E80002002AF3D100BF00BF00BF21684F
:10429000143151E8001F21F001002168143141E878
:1042A0000002002AF3D100BF202084F84200002041
:1042B000206300BF00BF21680C3151E8001F21F0CE
:1042C000100021680C3141E80002002AF3D100BF40
:1042D0000220606341462046FFF74FFEAEE605F040
:1042E000800030B106F0800018B1204601F0FFFADE
:1042F000A4E605F0400030B106F0400018B12046B9
:1043000001F0DAFB9AE600BF98E60000D95A0008EF
:1043100010B504460CB9012010BDA06900B100E041
:1043200000BF94F8410028B9002084F840002046DE
:1043300000F02AF8242084F841002068C06820F4A6
:1043400000502168C860204601F03EF920680069ED
:1043500020F49040216808612068406920F02A001C
:10436000216848612068C06840F400502168C86036
:1043700000206064202084F8410084F8420000207E
:10438000606300BFC8E7000010B586B00446142182
:1043900001A8FCF70DF94D492068884257D100BFAC
:1043A000002000904A48006840F480204849086096
:1043B0000846006800F48020009000BF00BF002085
:1043C000009043481038006840F00400404910391C
:1043D00008600846006800F00400009000BF4FF439
:1043E000406001900220029000200390032004907E
:1043F0000720059001A93748FEF780FE3648374967
:1044000008604FF000604860002134488160C1605E
:104410004FF480610161002141618161C1614FF40C
:104420004031016200214162FEF762FD08B1FDF7F3
:10443000CCFD00BF2948E063846300BF0022114621
:104440002720FEF7DFFF2720FEF7C8FF3CE02449C6
:104450002068884238D100BF002000901C48001D11
:10446000006840F020001A49091D086008460068ED
:1044700000F02000009000BF00BF00200090144812
:104480001038006840F040001149103908600846B3
:10449000006800F04000009000BF4FF4844001909D
:1044A0000220029000200390032004900820059031
:1044B00001A90C48FEF722FE002211464720FEF714
:1044C000A1FF4720FEF78AFF06B010BD004800405C
:1044D000403802400008024028600240A401002049
:1044E000001401400018024070B504460D461646FF
:1044F00094F8420020280BD105B10EB9012070BDFF
:104500000020206332462946204600F0D9FAF6E71B
:104510000220F4E770B504460D46164694F84200B2
:1045200020280BD105B10EB9012070BD00202063F9
:1045300032462946204600F02DFBF6E70220F4E73C
:1045400070B52DED028B06464049306888427AD11D
:104550003F4800780A2863D100203E493E4A12783D
:10456000885400240D46084600786D280ED1084670
:10457000807820280AD108464078A0F13104002C28
:1045800001DB032C00DD0024324DED1C022233A19F
:104590002846FBF790FF80B9A81C01F021FBB0EE84
:1045A000408AF0EE608A51EC180B01F0E3FCC4EB9A
:1045B000C4012B4A42F831002EE0022229A12846EC
:1045C000FBF779FF88B9A81C01F00AFBB0EE408A1E
:1045D000F0EE608A51EC180B01F0CCFCC4EBC40186
:1045E0001F4A02EBC101486016E002221EA12846C4
:1045F000FBF761FF80B9A81C01F0F2FAB0EE408A27
:10460000F0EE608A51EC180B01F0B4FCC4EBC4016D
:10461000134A02EBC101886000200F4908700DE0C9
:104620000D480078312809DA094802780A480178EB
:104630000078401C084B1870064842540122044977
:104640000A48FFF767FFBDEC028B70BD0014014004
:10465000000000202800002001000020703D000024
:1046600004020020693D0000643D00005C01002060
:1046700070472DE9F84F04460E46174699464FF00D
:10468000000A94F84100202850D106B117B9012042
:10469000BDE8F88F00206064212084F84100FEF717
:1046A00025FE8246A784E784A068B0F5805F04D128
:1046B000206910B90025B04602E035464FF00008E9
:1046C0001EE05346002280212046CDF8009001F0E4
:1046D0000CFA20B1202084F841000320D8E745B926
:1046E000B8F80000C0F308002168486008F102082B
:1046F00003E02878216848606D1CE08C401EE0844F
:10470000E08C0028DDD15346002240212046CDF820
:10471000009001F0EAF920B1202084F84100032044
:10472000B6E7202084F841000020B1E70220AFE77F
:10473000704700BFFEE700001FB500200090019009
:10474000029003901548164908604FF48030486085
:104750000021134881600161017680F82010C16258
:10476000104981620021C1600121C161002180F8EE
:10477000301001214161FDF7F1FC08B1FDF725FC86
:104780000820009001200190002002906946044812
:10479000FDF71EFC08B1FDF718FC1FBD002201400B
:1047A0005C0000200100000F10B51048104908609F
:1047B0000320486000210E488160C1604FF4002151
:1047C00001614FF4401141610021017601214176E0
:1047D000002181760121C176002101774177FEF722
:1047E0006BF808B1FDF7F1FB10BD0000006400405C
:1047F000A400002008B500BF002000900A4800680F
:1048000040F40010084908600846006800F40010F1
:10481000009000BF002211460C20FEF7F3FD0C2093
:10482000FEF7DCFD08BD00003038024008B500BFCF
:10483000002000902948006840F0400027490860A7
:104840000846006800F04000009000BF00BF002054
:1048500000900846006840F00100086008460068C3
:1048600000F00100009000BF00BF0020009008464B
:10487000006840F0080008600846006800F0080082
:10488000009000BF00BF002000900846006840F084
:10489000040008600846006800F00400009000BFB3
:1048A00000BF002000900846006840F080000860CB
:1048B0000846006800F08000009000BF00BF0020A4
:1048C00000900846006840F0200008600846006834
:1048D00000F02000009000BF08BD0000303802400A
:1048E0001CB50020009001900E480F49086054202C
:1048F000486000210C4881604FF47A71C16000214A
:104900008161FFF7D5F908B1FDF75FFB002000904A
:10491000019069460448FFF771F908B1FDF755FBAE
:104920001CBD000000100040CC00002010B50C4859
:104930000C4908600C4848604FF480510948816078
:104940000021C1604FF4806101610C2141610021AF
:104950008161C161FFF7DCFC08B1FDF736FB10BDDA
:104960000048004014010020A086010010B50B484B
:104970000B4908604FF4E13048600021084881602D
:10498000C16001610C21416100218161C161FFF7BA
:10499000BFFC08B1FDF719FB10BD00000014014079
:1049A0005C01002000BFFEE700BFFEE770477047D4
:1049B00010B5FEF7A1FC10BD0348006840F470007C
:1049C000014908607047000088ED00E010B5034819
:1049D000FFF719FA00F096FB10BD0000CC00002094
:1049E00010B502682B4B98420ED0B0F1804F0BD01F
:1049F000294B984208D0294B984205D0284B984221
:104A000002D0284B984203D122F070024B681A431F
:104A1000204B984220D0B0F1804F1DD01E4B9842C1
:104A20001AD01E4B984217D01D4B984214D01D4BE4
:104A3000984211D01C4B98420ED01C4B98420BD080
:104A40001B4B984208D01B4B984205D01A4B9842FA
:104A500002D01A4B984203D122F44072CB681A4319
:104A600022F080034C6943EA04028B68C3620B683E
:104A70008362084B984202D00A4B984201D10B69DD
:104A80000363036843F0040303600123436102608E
:104A900010BD00000000014000040040000800407C
:104AA000000C00400004014000400140004401406F
:104AB0000048014000180040001C00400020004059
:104AC00077B581B0044615460298A062A5850020FE
:104AD0006064222084F842002B48E16BC8632B48B5
:104AE000E16B08642A48E16BC8640020E16B08654B
:104AF00002AE32682368191D2B46E06BFEF7A1FA5F
:104B000038B110206064202084F84200012004B0F5
:104B100070BD00BF002000902068006800902068F1
:104B20004068009000BF206970B100BF00BF2168DD
:104B30000C3151E8001F41F4807021680C3141E8CC
:104B40000002002AF3D100BF00BF00BF216814316A
:104B500051E8001F41F001002168143141E80002D2
:104B6000002AF3D100BF00BF00BF2168143151E813
:104B7000001F41F040002168143141E80002002A82
:104B8000F3D100BF0020C2E7055A00084F590008C2
:104B90007955000810B5034699629A85DA85002098
:104BA0005864222083F84200186928B11868C06848
:104BB00040F480701C68E0601868406940F00100B3
:104BC0001C6860611868C06840F020001C68E060E4
:104BD000002010BD08B5104800680068C0F3001040
:104BE000B0B100BF002000900B4800680068009042
:104BF000094800684068009000BF0748FFF7BEF909
:104C0000064800F04BF8122204490348FFF76CFCF9
:104C10000148FFF7F9F908BD14010020A0030020A6
:104C200010B50248FFF7F0F910BD00005C0100204C
:104C300000BFFEE710B5002411E0C4EBC401094A2F
:104C400002EBC1009FED082ADFED081A9FED081A5C
:104C5000DFED070AB1EE040A00F032FB641C042CFD
:104C6000EBDB10BD0402002000409C4500007A46AA
:104C700000000000F0B587B006460C4617461D46FA
:104C80000194002002900390049005956B463A46EB
:104C900001A93046FDF7E9FA07B0F0BD00B50346BB
:104CA00019785A7841EA0221C1F30A0000F038FA73
:104CB000174908805978C9109A7841EA4211C1F31E
:104CC0000A0000F02DFA1249488099788911DA78A3
:104CD00041EA82011A7941EA8221C1F30A0000F017
:104CE0001FFA0B498880197949105A7941EAC21193
:104CF000C1F30A0000F014FA0549C8805879800908
:104D000008725879C0F301110148417200BD0000DA
:104D1000D603002000B593B0302107A8FBF748FC6C
:104D2000142102A8FBF744FC00BF00200190234897
:104D3000006840F08050214908600846006800F093
:104D40008050019000BF00BF002001901C48006807
:104D500040F480401A4908600846006800F480402A
:104D6000019000BF012007900004089002200D90E0
:104D700041050E9106210F91A82110910221119158
:104D80000421129107A8FEF7CFFC08B1FDF71DF929
:104D90000F20029002200390002004904FF4A050B6
:104DA00005904FF480500690052102A8FEF77CFB89
:104DB00008B1FDF70AF913B000BD00004038024009
:104DC0000070004030B52DED108B97B0A548407AAB
:104DD00002281ED1002416E0E1B20022A24800F011
:104DE0008BFA9FEDA20AC4EBC400A14901EBC000FD
:104DF00080ED090A9FED9D0AC4EBC40001EBC000E1
:104E000080ED070A641C042CE6DB17B0BDEC108BA8
:104E100030BD9449B1F90000002801DB014600E0F3
:104E200041420A2901DA002102E08E49B1F900105D
:104E300000EE101AB8EEC08A8A49B1F902000028C3
:104E400001DB014600E041420A2901DA002102E0CB
:104E50008449B1F9021000EE101AF8EEC08A8149B7
:104E6000B1F90400002801DB014600E041420A29B3
:104E700001DA002102E07B49B1F9041000EE101ABA
:104E8000B8EEC0FAB5EEC08AF1EE10FA25D1F5EE13
:104E9000C08AF1EE10FA20D1B5EEC0FAF1EE10FAA8
:104EA0001BD1002416E0E1B200226F4800F024FA82
:104EB0009FED6E0AC4EBC4006D4901EBC00080EDAC
:104EC000090A9FED6A0AC4EBC40001EBC00080ED43
:104ED000070A641C042CE6DB97E738EEC80A30EEBC
:104EE0004F0AF2EE020A20EE200A8DED120A38EE89
:104EF000880A30EE0F0AF2EE020A20EE200A8DED4B
:104F0000130A38EEC80A30EE0F0AF2EE020A20EE5B
:104F1000200A8DED140A38EE880A30EE4F0AF2EEC0
:104F2000020A20EE200A8DED150A002426E004EB8B
:104F30004400504931F9100000EE100AB8EEC00AE2
:104F4000B0EE409A12A901EB8401D1ED000AB0EE57
:104F5000600AC4EBC401464A02EBC100F0EE490A04
:104F600000F030F9F0EE409AE1B2BDEEE90A10EE41
:104F7000100A02B23C4800F0BFF9641C042CD6DBD6
:104F80003B4890ED300A10EE101A084601F0E4F9A3
:104F900041EC190B364890ED2F0A10EE101A084616
:104FA00001F0DAF941EC1A0B314890ED220A10EECB
:104FB000101A084601F0D0F941EC1B0B2C4890ED7B
:104FC000210A10EE101A084601F0C6F941EC1C0B3C
:104FD000274890ED140A10EE101A084601F0BCF9AB
:104FE00041EC1D0B224890ED130A10EE101A0846F2
:104FF00001F0B2F941EC1E0B1D4890ED060A10EECF
:10500000101A084601F0A8F9CDE91001184890EDF2
:10501000050A10EE101A084601F09EF9CDE90E01BE
:105020008DED0C9B8DED0AAB8DED08BB8DED06CBA8
:105030008DED04DB8DED02EB9DED100B8DED000B86
:105040009DED0E0B53EC102B0BA11648FBF796F9B8
:105050000546AAB20A2313491348FFF70AFB00BF0B
:10506000D3E60000D60300201C0000200000000052
:105070000402002064030020252E31662C252E31E9
:10508000662C252E31662C252E31662C252E316678
:105090002C252E31662C252E31662C252E31660AC4
:1050A00000000000E40200205C010020F0B58BB09D
:1050B00007460C4615461E4604F0010008B10BB029
:1050C000F0BDC4F3400000B1F9E76805000C0190A1
:1050D000002002907005000C039000200490E0086E
:1050E0000690002007900120089009900E200A9059
:1050F000C4F38000059001A93846FDF75BF900BFB5
:10510000DDE7000010B5FFF75DFE0823024A9901B4
:105110000248FFF7AFFD10BD1C000020A4000020D6
:105120000146A1F5806210B27047000008B500206A
:1051300004E000211F4A22F81010401C0428F8DB6C
:1051400000201C49087200211A48417200BF00204B
:10515000009019480068006800901748006840688F
:10516000009000BF14480068C06840F01000124969
:105170000968C860104890F84200202818D10F48EC
:1051800000680D49886212208885002048640A461C
:105190001268111D084A1223D06B094AFDF71EFF41
:1051A00005480068406940F04000034909684861CB
:1051B00008BD0000D60300201401002024000020B8
:1051C000A0030020B0EE401A80ED051AC0ED060ADB
:1051D00031EE600A80ED0B0A90ED000AD0ED0B1A5B
:1051E00020EE210A80ED080A90ED090AD0ED011A9F
:1051F00090ED0B2A01EE820A80ED090A90ED0B0A70
:10520000D0ED0C1A30EE610AD0ED021A20EE210A20
:1052100080ED0A0A90ED090AD0ED041AB4EEE10A15
:10522000F1EE10FA04DD90ED040A80ED090A10E0B9
:1052300090ED090AD0ED041AF1EE611AB4EEE10A1C
:10524000F1EE10FA05D290ED040AB1EE400A80EDBD
:10525000090A90ED080AD0ED091A30EE210AD0EDC6
:105260000A1A30EE210A80ED070A90ED070AD0ED08
:10527000031AB4EEE10AF1EE10FA04DD90ED030A30
:1052800080ED070A10E090ED070AD0ED031AF1EE69
:10529000611AB4EEE10AF1EE10FA05D290ED030ABC
:1052A000B1EE400A80ED070A90ED0C0A80ED0D0A80
:1052B00090ED0B0A80ED0C0A90ED070A7047000094
:1052C00080ED000AC0ED010A80ED021AC0ED031A5C
:1052D00080ED042ADFED072AC0ED0D2AC0ED0C2A6F
:1052E000C0ED0B2ADFED032AC0ED092AC0ED072A25
:1052F000704700000000000010B5C2F3072300F85B
:105300001130012404EB4104025510BD55494A688F
:1053100022F440324A604A6843681A434A6002688D
:10532000526822F4807203685A6002685368026906
:1053300043EA022203685A600268526822F040720F
:1053400003685A600268526883681A4303685A60A7
:105350000268926822F4006203689A6002689268A8
:10536000C3681A4303689A603F4B826A9A4218D016
:105370000268926822F0706203689A60026892681C
:10538000836A1A4303689A600268926822F0405266
:1053900003689A6002689268C36A1A4303689A6055
:1053A0000BE00268926822F0706203689A600268FB
:1053B000926822F0405203689A600268926822F074
:1053C000020203689A6002689368027E43EA42021E
:1053D00003689A602022125CA2B10268526842F40B
:1053E000006203685A600268526822F460420368EF
:1053F0005A6002685368426A521E43EA42320368A6
:105400005A6005E00268526822F4006203685A603C
:105410000268D26A22F470020368DA620268D36A10
:10542000828B521E43EA02520368DA620268926873
:1054300022F4007203689A600268936890F8302042
:1054400043EA422203689A600268926822F480620A
:1054500003689A6002689368426943EA822203689B
:105460009A607047002301400100000F30B50468C6
:10547000246824F4802405682C60046863608468D0
:10548000402C04D10468A2600468E16003E0046871
:10549000A1600468E26030BD014600208A6A8B6921
:1054A000CBB932B1012A0DD0022A03D0032A10D180
:1054B0000EE000BFCB6A03F08073B3F1807F00D1B0
:1054C000012007E0CB6AB3F1C07F00D1012001E0E9
:1054D00000E000BF34E08B69B3F5005F1AD132B150
:1054E000012A07D0022A03D0032A11D10AE000BF03
:1054F00001200EE0CB6A03F08073B3F1807F00D10E
:10550000012006E0CB6AB3F1C07F00D1012000E0AA
:1055100000BF15E032B1012A05D0022A04D0032AC7
:105520000CD103E000BF00BF012008E0CB6A03F00C
:105530008073B3F1807F00D1012000E000BF00BF85
:10554000704700000146087810381823B0FBF3F2CA
:105550000848805CC865032A05D908686FF309000C
:10556000001D886503E008686FF309008865886D91
:10557000704700004E65000870B506460025B46B04
:1055800020684069C0F3C01594F84100212805D176
:1055900025B10020E084204600F021FA206840690F
:1055A000C0F3801594F84200222805D125B10020CF
:1055B000E085204600F0DDF9606C40F0100060648A
:1055C0002046FEF720FD70BD2DE9F84F0446206807
:1055D000006920F44050E1680843216808612169AE
:1055E000A068084361690843E169084300902068A6
:1055F000C06849F20C618843009908432168C8607B
:105600002068406920F44070A1690843216848611E
:1056100076492068884203D075492068884203D1C2
:10562000FEF71AF8814602E0FEF706F88146E069C7
:10563000B0F5004F6CD102206168A0FB0150034619
:105640001920A9FB007001462A463846FAF71EFECB
:105650006421B0FBF1F04FEA001A02206168A0FB60
:1056600001510B461920A9FB00712A463846FAF76A
:105670000DFE834602206168A0FB015003461920FD
:10568000A9FB00712A463846FAF700FE6421B0FBF8
:10569000F1F000EBC00101EB0010ABEB8000322118
:1056A00001EBC0006421B0FBF1F000F0F8000AEB60
:1056B000400A02206168A0FB015003461920A9FBA3
:1056C000007001462A463846FAF7E0FD834602207C
:1056D0006168A0FB015003461920A9FB00712A460E
:1056E0003846FAF7D3FD6421B0FBF1F000EBC001BE
:1056F00001EB0010ABEB8000322101EBC000642114
:10570000B0FBF1F000F007005044216888606AE0C7
:1057100004206168A0FB015003461920A9FB00701A
:1057200001462A463846FAF7B1FD824604206168F0
:10573000A0FB015003461920A9FB007001462A4630
:105740003846FAF7A3FD6421B0FBF1F000EBC0018D
:1057500001EB0010AAEB8000322101EB0010642164
:10576000B0FBF1F000F0F00A04206168A0FB0170CA
:1057700003461920A9FB00513A462846FAF786FD50
:105780006421B0FBF1F00AEB001A04206168A0FB71
:1057900001510B461920A9FB00712A463846FAF739
:1057A00075FD834604206168A0FB01500346192063
:1057B000A9FB007001462A463846FAF767FD6421C6
:1057C000B0FBF1F000EBC00101EB0010ABEB80008F
:1057D000322101EB00106421B0FBF1F000F00F006A
:1057E000504421688860BDE8F88F00000010014037
:1057F00000140140F8B504460025002694F8420044
:10580000222872D1A068B0F5805F0BD1206948B919
:10581000A66A20684068C0F308003080A06A801C37
:10582000A06214E0A56AA068B0F5805F03D0A0680C
:1058300028B9206918B920684068287004E02068F9
:10584000406800F07F002870A06A401CA062E08DD4
:10585000401E80B2E085002845D12068C06820F055
:1058600020002168C8602068C06820F4807021682A
:10587000C8602068406920F001002168486120204C
:1058800084F8420000206063206B012825D10020AD
:10589000206300BF00BF21680C3151E8001F21F0D8
:1058A000100021680C3141E80002002AF3D100BF4A
:1058B0002068006800F01000102809D100BF002007
:1058C000009020680068009020684068009000BF49
:1058D000A18D2046FEF751FB02E02046FEF730FE88
:1058E0000020F8BD01E00020FBE70220F9E70146B7
:1058F00091F84100212828D18868B0F5805F0BD14C
:10590000086948B90A6A1088C0F308000B68586033
:10591000086A801C086205E00B6A581C0862187847
:105920000B685860C88C401E80B2C88458B908689B
:10593000C06820F080000B68D8600868C06840F03C
:1059400040000B68D860002070470220FCE770B56B
:105950000546AC6B01206063206B012805D1A08D4A
:1059600041082046FEF709FB02E02046FEF780FED4
:1059700070BD00BF00BF02680C3252E8002F22F455
:10598000907102680C3242E80013002BF3D100BF83
:1059900000BF00BF0268143252E8002F22F001015C
:1059A0000268143242E80013002BF3D100BF016BF0
:1059B00001290ED100BF00BF02680C3252E8002F4F
:1059C00022F0100102680C3242E80013002BF3D1E0
:1059D00000BF202180F8421000210163704700BF02
:1059E00000BF02680C3252E8002F22F0C0010268AA
:1059F0000C3242E80013002BF3D100BF202180F8C5
:105A00004110704770B50546AC6B2868006800F41B
:105A10008070002842D1E08500BF00BF21680C31B2
:105A200051E8001F21F4807021680C3141E8000228
:105A3000002AF3D100BF00BF00BF2168143151E834
:105A4000001F21F001002168143141E80002002A02
:105A5000F3D100BF00BF00BF2168143151E8001F1F
:105A600021F040002168143141E80002002AF3D1FE
:105A700000BF202084F84200206B01280ED100BF17
:105A800000BF21680C3151E8001F21F0100021688F
:105A90000C3141E80002002AF3D100BF002060630E
:105AA000206B012804D1A18D2046FEF766FA02E0A2
:105AB0002046FEF745FD70BD10B504462068C0685D
:105AC00020F040002168C860202084F84100204672
:105AD000FEF72EFE002010BD70B50446A56B002019
