:020000040800F2
:10000000D007002029020008812300086121000890
:100010007D23000817040008A52400080000000044
:10002000000000000000000000000000872300081E
:100030003D04000800000000852300088923000813
:10004000430200084302000843020008430200087C
:10005000430200084302000843020008430200086C
:10006000430200084302000843020008430200085C
:100070002D04000843020008430200084302000860
:10008000430200084302000843020008430200083C
:100090001D04000843020008430200084302000850
:1000A000430200084302000843020008430200081C
:1000B000430200084302000843020008430200080C
:1000C00043020008430200084302000843020008FC
:1000D0004302000843020008430200089524000878
:1000E00043020008430200084302000843020008DC
:1000F00043020008430200084302000843020008CC
:1001000043020008430200084302000843020008BB
:100110004302000843020008A52300084302000828
:10012000430200084302000843020008430200089B
:10013000430200084302000843020008430200088B
:10014000430200084302000843020008430200087B
:10015000430200084302000843020008430200086B
:10016000430200084302000843020008430200085B
:100170004302000843020008430200080000000098
:10018000430200084302000800F002F800F03CF8C7
:100190000AA090E8000C82448344AAF10107DA45E2
:1001A00001D100F031F8AFF2090EBAE80F0013F0F8
:1001B000010F18BFFB1A43F001031847882A0000FB
:1001C000A82A0000103A24BF78C878C1FAD852078C
:1001D00024BF30C830C144BF04680C6070470000C1
:1001E0000023002400250026103A28BF78C1FBD840
:1001F000520728BF30C148BF0B6070471FB502F0DF
:100200000BFD1FBD10B510BD00F0CFF81146FFF774
:10021000F5FF02F0EFFC00F0EDF803B4FFF7F2FF9A
:1002200003BC00F0F1F80000094880470948004786
:10023000FEE7FEE7FEE7FEE7FEE7FEE7FEE7FEE796
:10024000FEE7FEE704480549054A064B70470000F3
:100250009123000889010008D0010020D007002068
:10026000D0030020D003002053EA020C00F0698084
:100270002DE9F04B4FF00006002B1FBFB3FA83F5BA
:1002800003FA05F424FA05F65E4012BF1643B2FAEB
:1002900082F502FA05F4C5F120051EBF22FA05FC1D
:1002A00044EA0C04203556EA044C4FEA144418BFC3
:1002B000641C4FF000084FF00009904271EB030CF2
:1002C00039D3002919BFB1FA81F701FA07F6B0FA5C
:1002D00080F700FA07F6C7F120071EBF20FA07FCD7
:1002E00046EA0C062037B6FBF4FCA7EB0507103FE7
:1002F00007F01F0BCBF120060CFA0BFB2CFA06F6CD
:1003000044BFB3460026202FA4BF5E464FF0000B2B
:100310005BEA060C08BF4FF0010B19EB0B09ABFBB6
:10032000027C48EB0608C01B06FB02CC0BFB03CC8F
:1003300071EB0C01C1E70B46024641464846BDE859
:10034000F08B13B54FF000004FF00001AFF30080C9
:10035000BDE81C4070474FF0000200B513469446BC
:100360009646203922BFA0E80C50A0E80C50B1F10D
:100370002001BFF4F7AF090728BFA0E80C5048BF21
:100380000CC05DF804EB890028BF40F8042B08BFBF
:10039000704748BF20F8022B11F0804F18BF00F8BB
:1003A000012B7047704770477047754600F028F87A
:1003B000AE4605006946534620F00700854618B052
:1003C00020B5FFF73FFFBDE820404FF000064FF09B
:1003D00000074FF000084FF0000B21F00701AC467A
:1003E000ACE8C009ACE8C009ACE8C009ACE8C00999
:1003F0008D4670470446AFF300802046FFF70DFF9F
:10040000004870477001002001491820ABBEFEE78C
:1004100026000200704700BFFEE7000010B502484A
:1004200000F049F910BD00005800002010B5024846
:1004300000F0E2FB10BD000010010020704772B612
:1004400000BFFEE738B502460020009000BF92F8DA
:100450003C00012801D1022038BD012082F83C0077
:1004600000BF0868092816D91068C0680C780A3CD3
:1004700004EB44050724AC40A0431468E0600C780A
:100480000A3C04EB44048868A0401468E4682043F4
:100490001468E06013E0106800690C7804EB440510
:1004A0000724AC40A043146820610C7804EB44049A
:1004B0008868A04014682469204314682061486853
:1004C000072817D21068406B0C79641E04EB840572
:1004D0001F24AC40A04314686063088880B20C7984
:1004E000641E04EB8404A0401468646B2043146809
:1004F000606331E048680D2817D21068006B0C79F2
:10050000E41F04EB84051F24AC40A043146820635F
:10051000088880B20C79E41F04EB8404A0401468BE
:10052000246B20431468206316E01068C06A0C79BD
:100530000D3C04EB84051F24AC40A0431468E0622A
:10054000088880B20C790D3C04EB8404A040146848
:10055000E46A20431468E062194B1A4C1068A04208
:1005600006D10868122803D1586840F4800058600A
:10057000144C1068A0421CD10868102802D00868EA
:10058000112816D1586840F40000586008681028F7
:100590000FD10D4800680D4CB0FBF4F000EB80006B
:1005A0004000009002E00098401E00900098002853
:1005B000F9D100BF002082F83C0000BF00BF4BE72C
:1005C00000230140002001400C00002040420F00A9
:1005D00070B5044600250CB9012070BD1549A06A0C
:1005E000884200D000BF206C30B9204600F024F8CB
:1005F0000020606484F83C00206C00F0100088B992
:10060000206C20F4885040F002002064204601F065
:10061000A3FF00206064206C20F0020040F0010085
:10062000206400E0012500BF002084F83C0000BFEA
:100630002846D2E70100000F10B586B00446142109
:1006400001A8FFF788FE18492068884229D100BF19
:10065000002000901548006840F48060134908604D
:100660000846006800F48060009000BF00BF0020D2
:1006700000900E481438006840F020000B491439EF
:1006800008600846006800F02000009000BF0815D0
:100690000190032002900020039001A9044800F07B
:1006A00041FC06B010BD0000002201404438024069
:1006B0000014024070472DE9F05F044600252068D1
:1006C00046692068D0F80490206887682068D0F8D0
:1006D0000CA02068D0F810B02068D0F8188006F080
:1006E0000100002855D007F00100C0B101202168A9
:1006F000886007F0020018B1204600F00DFA0EE005
:1007000007F0040010B145F4006508E007F00800A8
:1007100010B145F4805502E0204600F0FCF907F4E2
:100720008070C8B14FF480702168886007F4007051
:1007300018B1204600F0F2F90EE007F4806010B125
:1007400045F4005508E007F4006010B145F4804519
:1007500002E0204600F0E1F907F48030C8B14FF420
:1007600080302168886007F4003018B1204600F01E
:10077000D7F90EE007F4802010B145F4004508E0F9
:1007800007F4002010B145F4803502E0204600F067
:10079000C6F906F0080038B10AF0100020B145F49F
:1007A000007510202168C86006F0040040B10AF00E
:1007B000080028B108202168C860204600F0A6F98A
:1007C00006F0020038B12068C06800F0030010B1E4
:1007D000204600F09CF906F0400038B10BF0100004
:1007E00020B145F4806510202168086106F02000E2
:1007F00040B10BF0080028B10820216808612046AC
:1008000000F086F906F0100038B12068006900F0A9
:10081000030010B1204600F07CF906F4003040B12E
:1008200009F0100028B1102021684860204600F02F
:1008300071F906F4803040B109F0080028B10820B1
:1008400021684860204600F06CF906F4004088B347
:1008500009F0040078B306F4807020B108F00100BC
:1008600008B145F0010506F4007020B108F002005F
:1008700008B145F0020506F4806020B108F00400DC
:1008800008B145F0040506F40060A0B108F070005E
:1008900088B108F07000402817D006DC10280BD073
:1008A00020280CD0302819D10CE0502810D0602816
:1008B00014D110E01DE019E045F008050FE045F007
:1008C00010050CE045F0200509E045F0400506E084
:1008D00045F0800503E045F4807500E000BF00BFEF
:1008E0002068806920F070002168886104202168F8
:1008F00048602DB1606A284360622046FFF7DAFE47
:10090000BDE8F09F70B504460CB9012070BD94F8A5
:10091000200010B9204600F0AFF82068006840F0D1
:1009200001002168086000F0F5FB05460DE000F0CD
:10093000F1FB401B0A2808D9606A40F4003060626D
:10094000052084F820000120E0E72068406800F0DE
:1009500001000028EBD02068006820F00200216828
:10096000086000F0D7FB05460DE000F0D3FB401B0C
:100970000A2808D9606A40F400306062052084F8D3
:1009800020000120C2E72068406800F00200002833
:10099000EBD1207E012806D12068006840F080005D
:1009A0002168086005E02068006820F08000216868
:1009B0000860607E012806D12068006840F0400091
:1009C0002168086005E02068006820F04000216888
:1009D0000860A07E012806D12068006840F0200051
:1009E0002168086005E02068006820F02000216888
:1009F0000860E07E012806D12068006820F0100021
:100A00002168086005E02068006840F01000216857
:100A10000860207F012806D12068006840F00800A7
:100A20002168086005E02068006820F0080021685F
:100A30000860607F012806D12068006840F004004B
:100A40002168086005E02068006820F00400216843
:100A50000860D4E902010843216908436169084339
:100A60006168491E08432168C86100206062012056
:100A700084F82000002049E710B586B00446142110
:100A800001A8FFF768FC1E492068884235D100BFE5
:100A9000002000901B48006840F000701949086071
:100AA0000846006800F00070009000BF00BF002002
:100AB000009014481038006840F0080011491039BF
:100AC00008600846006800F00800009000BF03209E
:100AD000019002200290002003900320049009203E
:100AE000059001A9084800F01DFA002211461420C3
:100AF00000F09CFB142000F085FB06B010BD000048
:100B00000064004040380240000C024070477047CB
:100B1000704770477047704770477047704770471D
:100B20007047704770B50446A56D00F0F3FA0646AD
:100B300094F83500022808D08020606500BF0020AE
:100B400084F8340000BF012070BD2068006820F0E8
:100B50001600216808602068406920F08000216844
:100B60004861206C08B9A06C28B12068006820F0AA
:100B70000800216808602068006820F001002168F2
:100B8000086010E000F0C6FA801B05280BD9202071
:100B90006065032084F8350000BF002084F834002D
:100BA00000BF0320D0E72068006800F001000028A3
:100BB000E8D194F85C103F208840A860012084F8B8
:100BC000350000BF002084F8340000BF00BFBBE741
:100BD000014691F83500022803D0802048650120A5
:100BE0007047052081F835000868006820F0010092
:100BF0000A6810600020F3E7F8B504460020009072
:100C00008C4800684FF41651B0FBF1F7A56D2E68C3
:100C100094F85C1008208840304098B12068006843
:100C200000F0040070B12068006820F00400216822
:100C3000086094F85C1008208840A860606D40F05F
:100C40000100606594F85C1001208840304068B174
:100C50002068406900F0800040B194F85C100120E9
:100C60008840A860606D40F00200606594F85C10F8
:100C700004208840304068B12068006800F002001D
:100C800040B194F85C1004208840A860606D40F08A
:100C90000400606594F85C1010208840304078B300
:100CA0002068006800F0080050B394F85C10102031
:100CB0008840A8602068006800F4802080B1206827
:100CC000006800F4002028B9206CC8B12046216CCF
:100CD000884715E0A06C98B12046A16C88470FE0CA
:100CE0002068006800F4807028B92068006820F04F
:100CF000080021680860206C10B12046216C8847EC
:100D000094F85C10202088403040002865D020688E
:100D1000006800F0100000285FD094F85C102020DC
:100D20008840A86094F83500052828D1206800681C
:100D300020F01600216808602068406920F08000DB
:100D400021684861206C08B9A06C28B1206800684F
:100D500020F008002168086094F85C103F2088406B
:100D6000A860012084F8350000BF002084F834001A
:100D700000BF206D10B12046216D8847F8BD206866
:100D8000006800F4802080B12068006800F4002032
:100D900028B9606C10B12046616C88471DE0E06B9B
:100DA000D8B12046E16B884717E02068006800F45E
:100DB000807068B92068006820F010002168086021
:100DC000012084F8350000BF002084F8340000BF03
:100DD000E06B10B12046E16B8847606D38B3606D01
:100DE00000F00100F0B1052084F8350020680068AB
:100DF00020F001002168086000BF0098401C0090AE
:100E0000B84200D905E02068006800F00100002821
:100E1000F3D100BF012084F8350000BF002084F822
:100E2000340000BFE06C10B12046E16C884700BF81
:100E3000A4E700000C0000202DE9F0410446002545
:100E400000F068F9074614B90120BDE8F081606A36
:100E500000B100BF022084F8350000BF002084F8F4
:100E6000340000BF2068006820F00100216808609D
:100E70000AE000F04FF9C01B052805D92020606565
:100E8000032084F83500E0E72068006800F00100E6
:100E90000028EED12068056821480540D4E9010109
:100EA0000843E16808432169084361690843A1696F
:100EB0000843E1690843216A08430543606A04283E
:100EC00003D1D4E90B01084305432068056020687D
:100ED000456925F00705606A0543606A04280DD15D
:100EE000A06A0543E06A48B1204601F0E5FB28B15D
:100EF00040206065012084F83500A6E72068456140
:100F0000204601F02FFC064694F85C103F208840F4
:100F1000B06000206065012084F83500002094E76F
:100F20003F8010F0F8B502460B4600250024002053
:100F30000021D5E0012606FA01F51E6806EA05043F
:100F4000AC4273D11E7906F00306012E04D01E793F
:100F500006F00306022E13D190684F000326BE4010
:100F6000B0434F00DE68BE403043906050680126B9
:100F70008E40B0431E79C6F300168E403043506059
:100F80001E7906F00306032E09D0D0684F00032611
:100F9000BE40B0434F009E68BE403043D0601E79D3
:100FA00006F00306022E13D1CF0802F1200656F8F0
:100FB00027004E07F70E0F26BE40B0434F07FF0E27
:100FC0001E69BE403043CF0802F1200646F82700D4
:100FD00010684F000326BE40B0431E7906F003069A
:100FE0004F00BE40304310605E6806F44036002E6D
:100FF00075D000BF002600963B4E366846F480460A
:10100000394F3E603E46366806F48046009600BF83
:10101000364E8F0856F827008E07370F0F26BE4032
:10102000B043334EB24202D1002624E057E0314EA5
:10103000B24201D101261EE02F4EB24201D102265A
:1010400019E02E4EB24201D1032614E02C4EB242DA
:1010500001D104260FE02B4EB24201D105260AE051
:10106000294EB24201D1062605E0284EB24201D1F6
:10107000072600E008268F073F0FBE4030431B4E77
:101080008F0846F82700224E3068A0435E6806F4B9
:10109000801606B120431E4E3060361D3068A043D6
:1010A0005E6806F4001606B12043194E361D306006
:1010B000174E361F3068A0435E6806F4003606B14E
:1010C0002043134E361F3060361F3068A0435E68E1
:1010D00006F4803606B120430D4E083E3060491CB0
:1010E0001029FFF427AFF8BD44380240083801400A
:1010F000000002400004024000080240000C0240D0
:10110000001002400014024000180240001C02407F
:10111000083C0140014800687047000000000020C2
:10112000034800680349097808440149086070478A
:10113000000000200800002010B50D48006840F4B1
:1011400000700B4908600846006840F48060086041
:101150000846006840F480700860032000F0A4F89E
:101160000F2000F007F800F02BF8002010BD000061
:10117000003C024070B504460E4800784FF47A7186
:10118000B1FBF0F00C490968B1FBF0F5284600F01E
:101190002DFC08B1012070BD102C07D20022214681
:1011A000501E00F043F80548046001E00120F2E71A
:1011B0000020F0E7080000200C00002004000020C0
:1011C00008B500BF002000900D48006840F4804042
:1011D0000B4908600846006800F48040009000BF9A
:1011E00000BF00200090081F006840F08050091FD9
:1011F00008600846006800F08050009000BF08BDFD
:10120000443802400146084600280DDB00BF00BFFD
:1012100000F01F0301229A4043099B0003F1E023E1
:10122000C3F8002100BF00BF00BF70472DE9F05F89
:1012300080460D461646002701F0D4FC0746394685
:101240002A46334601F00700C0F1070ABAF1040F3D
:1012500002D94FF0040A01E0C0F1070AD14600F1BB
:10126000040ABAF1070F02D24FF0000A01E0A0F120
:10127000030AD4464FF0010A0AFA09FAAAF1010A50
:101280000AEA020A0AFA0CFA4FF0010B0BFA0CFBFD
:10129000ABF1010B0BEA030B4AEA0B042146404673
:1012A00001F08CFCBDE8F09F00BF00F00702064B88
:1012B00019684FF6FF031940044B0B4343EA022120
:1012C000014B196000BF70470CED00E00000FA050B
:1012D00070B504460D460CB9012070BD5848006831
:1012E00000F00700A84209D255490D700846006871
:1012F00000F00700A84201D00120EEE7207800F0BE
:10130000020002281DD1207800F00400042805D135
:101310004C48006840F4E0504A490860207800F0EA
:101320000800082805D14748006840F46040454956
:1013300008604448006820F0F000A1680843414973
:101340000860207800F00100A8B36068012807D188
:101350003C4808380068C0F34040B8B90120BCE7F9
:101360006068022802D06068032807D13548083831
:101370000068C0F3406048B90120AEE73148083842
:101380000068C0F3400008B90120A6E72D480068B6
:1013900020F00300616808432A490860FFF7BAFE9D
:1013A000064609E0FFF7B6FE801B41F2883188420D
:1013B00002D9032091E707E02248006800F00C0002
:1013C0006168B0EB810FEDD11D48006800F00700A7
:1013D000A84209D91A490D700846006800F00700B4
:1013E000A84201D0012078E7207800F0040004280A
:1013F00007D11448006820F4E050E168084311491F
:101400000860207800F00800082808D10D4800681E
:1014100020F46040216940EAC1000A49086000F0F8
:101420003FF808490968C1F30311074A515CC840F5
:101430000649086006480068FFF79CFE00204CE75C
:10144000003C0240083802402A2C00080C00002012
:101450000400002001480068704700000C000020D4
:1014600000B5FFF7F7FF04490968C1F38221034A79
:10147000515CC84000BD0000083802403A2C00080A
:1014800000B5FFF7E7FF04490968C1F34231034A99
:10149000515CC84000BD0000083802403A2C0008EA
:1014A0002DE9F047002400250026A14625480068C4
:1014B00000F00C0020B1042805D008283AD105E03E
:1014C000DFF8849039E0DFF8849036E01D48001F93
:1014D000006800F03F041B48001F006800F4800013
:1014E00078B11A481749091F0968C1F38811A0FB90
:1014F00001700146224600233846FEF7B5FE054638
:101500000EE011480F49091F0968C1F38811A0FBBB
:1015100001700146224600233846FEF7A5FE054627
:101520000848001F0068C0F30140401C4600B5FB9E
:10153000F6F902E0DFF8109000BF00BF4846BDE8B2
:10154000F0870000083802400024F400001BB700B8
:10155000F8B504460CB90120F8BD207800F0010070
:10156000002874D0F948006800F00C0004280DD061
:10157000F648006800F00C00082813D1F348001F5B
:10158000006800F48000B0F5800F0BD1EF480838F8
:101590000068C0F34040002859D06068002856D148
:1015A0000120D9E700BF6068B0F5803F08D1E74867
:1015B0000838006840F48030E449083908601EE0CB
:1015C0006068B0F5A02F0DD1E0480838006840F4FD
:1015D0008020DE49083908600846006840F4803001
:1015E00008600CE0D9480838006820F48030D749FA
:1015F000083908600846006820F48020086000BFB1
:10160000606890B1FFF786FD054606E0FFF782FDB2
:10161000401B642801D903209EE7CC4808380068A5
:10162000C0F340400028F1D011E0FFF773FD0546FC
:1016300006E0FFF76FFD401B642801D903208BE70C
:10164000C24808380068C0F340400028F1D1207833
:1016500000F0020002285FD1BC48006800F00C00D6
:1016600058B1BA48006800F00C0008281CD1B748EF
:10167000001F006800F48000B0B9B4480838006862
:10168000C0F3400020B1E068012801D0012063E7E9
:10169000AE480838006820F0F800216940EAC1002F
:1016A000AA490839086037E0E06800B30120A8497A
:1016B0000860FFF72FFD054606E0FFF72BFD401BF6
:1016C000022801D9032047E7A04808380068C0F382
:1016D00040000028F1D09D480838006820F0F8004C
:1016E000216940EAC10099490839086014E00020E6
:1016F00097490860FFF70EFD054606E0FFF70AFD73
:10170000401B022801D9032026E7904808380068CA
:10171000C0F340000028F1D1207800F0080008282C
:101720002CD16069A8B101208A490860FFF7F2FC5A
:10173000054606E0FFF7EEFC401B022801D9032016
:101740000AE782486C300068C0F340000028F1D0FE
:1017500014E000207F490860FFF7DCFC054606E046
:10176000FFF7D8FC401B022801D90320F4E6774894
:101770006C300068C0F340000028F1D1207800F000
:10178000040004286FD1002770483830006800F04A
:10179000805088B900BF002000906C483830006845
:1017A00040F080506949383108600846006800F010
:1017B0008050009000BF01276748006800F48070E7
:1017C000B0B96548006840F4807063490860FFF76D
:1017D000A1FC054606E0FFF79DFC401B022801D94D
:1017E0000320B9E65C48006800F480700028F2D05D
:1017F00000BFA068012808D154486830006840F054
:1018000001005249683108601DE0A06805280DD12B
:101810004E486830006840F004004C496831086068
:101820000846006840F0010008600CE04748683056
:10183000006820F0010045496831086008460068EA
:1018400020F00400086000BFA068A8B1FFF762FCA8
:10185000054609E0FFF75EFC401B41F288318842F3
:1018600002D9032078E626E0384868300068C0F3E3
:1018700040000028EED013E0FFF74CFC054608E0DE
:10188000FFF748FC401B41F28831884201D9032010
:1018900062E62E4868300068C0F340000028EFD1AF
:1018A000012F07D129483830006820F0805027499F
:1018B0003831086000BFA069002845D0234800687F
:1018C00000F00C0008285ED0A069022846D1002054
:1018D0001F490866FFF71EFC054606E0FFF71AFCE5
:1018E000401B022801D9032036E618480838006852
:1018F000C0F340600028F1D1D4E907010843616AD0
:1019000040EA81110122A06AC2EB500041EA004185
:101910002C20005D41EA00600C49091F086001208D
:101920000B490866FFF7F6FB054606E0FFF7F2FBFA
:10193000401B022801D903200EE60448083800683D
:10194000C0F340600028F1D04AE0000008380240AF
:1019500000004742800E47420070004000202149AD
:101960000866FFF7D7FB054606E0FFF7D3FB401BF1
:10197000022801D90320EFE51B480068C0F340604E
:101980000028F2D12CE0A069012800D1E4E5164836
:10199000001D0668A069012820D006F48001E069D6
:1019A00081421BD106F03F01206A814216D147F6E1
:1019B000C0703040616AB0EB811F0FD106F4403136
:1019C0000122A06AC2EB5000B1EB004F06D106F035
:1019D00070612C20005DB1EB006F01D00120BBE5F0
:1019E0000020B9E5000047420038024070B50446C7
:1019F0002546681EB0F1807F01D301200FE0681EEC
:101A00004FF0E02148610F214FF0FF3001F0D6F890
:101A100000204FF0E021886107200861002070BDA0
:101A20007047704730B502460B4600BF92F83C0045
:101A3000012801D1022030BD012082F83C0000BF06
:101A4000022082F83D00106844681068816824F024
:101A500070041868044310684460184D1068A84268
:101A60001BD01068B0F1804F17D0154D1068A842F8
:101A700013D0144D1068A8420FD0134D1068A8421F
:101A80000BD0124D1068A84207D0114D1068A84223
:101A900003D0104D1068A84205D121F0800158688C
:101AA000014310688160012082F83D0000BF0020E2
:101AB00082F83C0000BF00BFBDE70000000001400D
:101AC0000004004000080040000C004000040140F9
:101AD000004001400018004010B504460CB9012038
:101AE00010BD94F83D0028B9002084F83C00204641
:101AF00000F026F8022084F83D00211D206800F047
:101B000059FC012084F8460000BF84F83E00012102
:101B10003F200155402001554120015500BF00BF25
:101B2000012084F8420043200155442001554520FE
:101B3000015500BF012084F83D000020D0E70000DF
:101B400038B504460D492068884216D100BF0020F0
:101B500000900B48006840F01000094908600846F2
:101B6000006800F01000009000BF002211463620EF
:101B7000FFF75CFB3620FFF745FB38BD0010004047
:101B800040380240704770B504462068C568206838
:101B9000066906F00200022819D105F002000228A9
:101BA00015D1401F216808610120207720688069D5
:101BB00000F0030018B12046FFF7E4FF05E02046DF
:101BC00000F097F8204600F095F80020207706F006
:101BD0000400042819D105F00400042815D1C043DD
:101BE00021680861022020772068806900F4407035
:101BF00018B12046FFF7C6FF05E0204600F079F84F
:101C0000204600F077F80020207706F0080008282A
:101C100019D105F00800082815D1C04321680861D2
:101C2000042020772068C06900F0030018B1204626
:101C3000FFF7A8FF05E0204600F05BF8204600F023
:101C400059F80020207706F01000102819D105F06F
:101C50001000102815D1C0432168086108202077A2
:101C60002068C06900F4407018B12046FFF78AFF71
:101C700005E0204600F03DF8204600F03BF800204B
:101C8000207706F0010048B105F0010030B16FF097
:101C9000010021680861204600F02DF806F0800060
:101CA000802809D105F08000802805D1C043216833
:101CB00008612046FFF7B4FE06F04000402809D135
:101CC00005F04000402805D1C04321680861204646
:101CD00000F012F806F02000202809D105F02000BD
:101CE000202805D1C043216808612046FFF799FEEE
:101CF00070BD70477047704770477047704700006D
:101D00002DE9F84F0446206805682068C6682068F9
:101D100047694FF00009CA4605F00F09B9F1000FF5
:101D20000AD105F0200038B106F0200020B120468D
:101D300000F048FEBDE8F88FB9F1000F7CD007F045
:101D4000010018B906F49070002875D005F0010064
:101D500030B106F4807018B1606C40F0010060642E
:101D600005F0040030B107F0010018B1606C40F0DC
:101D70000200606405F0020030B107F0010018B104
:101D8000606C40F00400606405F0080048B106F0A3
:101D9000200010B907F0010018B1606C40F0080095
:101DA0006064606C002846D005F0200028B106F081
:101DB000200010B1204600F005FE20684069C0F305
:101DC000801A606C00F0080010B9BAF1000F2DD035
:101DD000204600F0A4FE2068406900F04000402842
:101DE00020D100BF00BF2168143151E8001F21F04D
:101DF00040002168143141E80002002AF3D100BFFD
:101E0000E06B50B17F48E16B0865E06BFEF7E0FEE8
:101E100088B1E06B016D88470DE02046FFF76EFF4B
:101E200009E009E02046FFF769FF04E02046FFF7DC
:101E300065FF002060647DE7206B012877D105F005
:101E40001000002873D006F010000028FAD000BF60
:101E50000020009020680068009020684068009092
:101E600000BF2068406900F04000402870D1E06B5E
:101E7000006840681FFA80F8B8F1000F58D0A08DB4
:101E8000404555DDA4F82E80E06BC069B0F5807F39
:101E900043D000BF00BF21680C3151E8001F21F47E
:101EA000807021680C3141E80002002AF3D100BFA4
:101EB00000BF00BF2168143151E8001F21F001006C
:101EC0002168143141E80002002AF3D100BF00BFAD
:101ED00000BF2168143151E8001F21F04000216843
:101EE000143141E80002002AF3D100BF202084F819
:101EF00042000020206300BF00BF21680C3151E880
:101F0000001F21F0100021680C3141E80002002A76
:101F1000F3D100BFE06BFEF705FE02206063A08DE9
:101F2000E28D801A81B22046FFF7E7FE0EE052E014
:101F3000A08D40450AD1E06BC069B0F5807F05D126
:101F400002206063A18D2046FFF7D7FEF2E6FFE78F
:101F5000A08DE18D401A1FFA80F8E08DD0B3B8F162
:101F6000000F37D000BF00BF21680C3151E8001FBF
:101F700021F4907021680C3141E80002002AF3D16D
:101F800000BF00BF00BF2168143151E8001F21F0DD
:101F900001002168143141E80002002AF3D100BF9A
:101FA000202084F842000020206300BF00BF216889
:101FB0000C3151E8001F21F0100021680C3141E87C
:101FC0000002002AF3D100BF022060634146204690
:101FD000FFF793FEAEE605F0800030B106F080001A
:101FE00018B1204600F06BFDA4E605F0400030B1CA
:101FF00006F0400018B1204600F0C7FD9AE600BF89
:1020000098E60000AB2B000810B504460CB901207F
:1020100010BDA06900B100E000BF94F8410028B9EC
:10202000002084F84000204600F02AF8242084F89C
:1020300041002068C06820F400502168C860204634
:1020400000F0AAFB2068006920F490402168086134
:102050002068406920F02A00216848612068C06833
:1020600040F400502168C86000206064202084F89B
:10207000410084F842000020606300BFC8E7000010
:1020800010B586B00446142101A8FEF764F92E4964
:102090002068884256D100BF002000902B4800687D
:1020A00040F48020294908600846006800F4802038
:1020B000009000BF00BF0020009024481038006846
:1020C00040F004002149103908600846006800F01B
:1020D0000400009000BF4FF4406001900220029085
:1020E00000200390032004900720059001A91848C0
:1020F000FEF718FF1748184908604FF00060486065
:10210000002115488160C1604FF4806101610021A8
:1021100041618161C1614FF440310162002141623E
:10212000FEF78AFE08B1FEF78AF900BF0A48E063AD
:10213000846300BF002211462720FFF777F827208D
:10214000FFF760F806B010BD00480040403802407C
:1021500000080240286002401001002070477047CC
:1021600000BFFEE71FB50020009001900290039091
:102170001548164908604FF4803048600021134824
:1021800081600161017680F82010C162104981628E
:102190000021C1600121C161002180F830100121BE
:1021A0004161FEF715FA08B1FEF749F908200090E1
:1021B000012001900020029069460448FEF742F990
:1021C00008B1FEF73CF91FBD0022014010000020BD
:1021D0000100000F10B51048104908600320486046
:1021E00000210E488160C1604FF4002101614FF46D
:1021F0004011416100210176012141760021817663
:102200000121C176002101774177FEF77BFB08B100
:10221000FEF715F910BD00000064004058000020D2
:1022200008B500BF002000900A48006840F4001084
:10223000084908600846006800F40010009000BFDC
:10224000002211460C20FEF7F1FF0C20FEF7DAFF0A
:1022500008BD00003038024008B500BF00200090E3
:102260002248006840F001002049086008460068E4
:1022700000F00100009000BF00BF00200090084661
:10228000006840F0080008600846006800F0080098
:10229000009000BF00BF002000900846006840F09A
:1022A000040008600846006800F00400009000BFC9
:1022B00000BF002000900846006840F080000860E1
:1022C0000846006800F08000009000BF00BF0020BA
:1022D00000900846006840F020000860084600684A
:1022E00000F02000009000BF08BD00003038024020
:1022F0001CB50020009001900E480F490860542042
:10230000486000210C4881604FF47A71C16000215F
:102310008161FFF7E1FB08B1FEF791F80020009022
:10232000019069460448FFF77DFB08B1FEF787F886
:102330001CBD0000001000408000002010B50C48BB
:102340000C4908600C4848604FF48051094881608E
:102350000021C1604FF4806101610C2141610021C5
:102360008161C161FFF750FE08B1FEF768F810BD4A
:1023700000480040C8000020A086010000BFFEE722
:1023800000BFFEE77047704710B5FEF7C9FE10BDED
:102390000348006840F4700001490860704700007D
:1023A00088ED00E010B50248FFF7EDFB10BD00001E
:1023B0008000002010B502682B4B98420ED0B0F17F
:1023C000804F0BD0294B984208D0294B984205D01A
:1023D000284B984202D0284B984203D122F0700239
:1023E0004B681A43204B984220D0B0F1804F1DD04B
:1023F0001E4B98421AD01E4B984217D01D4B984244
:1024000014D01D4B984211D01C4B98420ED01C4B3F
:1024100098420BD01B4B984208D01B4B984205D0DA
:102420001A4B984202D01A4B984203D122F44072C0
:10243000CB681A4322F080034C6943EA04028B689C
:10244000C3620B688362084B984202D00A4B9842E1
:1024500001D10B690363036843F0040303600123A4
:102460004361026010BD0000000001400004004014
:1024700000080040000C0040000401400040014002
:10248000004401400048014000180040001C00408A
:102490000020004010B50248FFF732FC10BD0000DC
:1024A000C800002000BFFEE700B593B0302107A8A8
:1024B000FDF751FF142102A8FDF74DFF00BF0020DA
:1024C00001902348006840F0805021490860084688
:1024D000006800F08050019000BF00BF0020019014
:1024E0001C48006840F480401A49086008460068AB
:1024F00000F48040019000BF012007900004089084
:1025000002200D9041050E9106210F91A8211091F6
:10251000022111910421129107A8FFF719F808B1BF
:10252000FDF78DFF0F200290022003900020049001
:102530004FF4A05005904FF480500690052102A85A
:10254000FEF7C6FE08B1FDF77AFF13B000BD00002C
:10255000403802400070004055494A6822F4403239
:102560004A604A6843681A434A600268526822F423
:10257000807203685A6002685368026943EA022263
:1025800003685A600268526822F0407203685A6019
:102590000268526883681A4303685A600268926846
:1025A00022F4006203689A6002689268C3681A4362
:1025B00003689A603F4B826A9A4218D00268926818
:1025C00022F0706203689A6002689268836A1A4314
:1025D00003689A600268926822F0405203689A6029
:1025E00002689268C36A1A4303689A600BE0026843
:1025F000926822F0706203689A600268926822F022
:10260000405203689A600268926822F002020368EE
:102610009A6002689368027E43EA420203689A6005
:102620002022125CA2B10268526842F40062036880
:102630005A600268526822F4604203685A60026875
:102640005368426A521E43EA423203685A6005E008
:102650000268526822F4006203685A600268D26A13
:1026600022F470020368DA620268D36A828B521E17
:1026700043EA02520368DA620268926822F4007246
:1026800003689A600268936890F8302043EA422217
:1026900003689A600268926822F4806203689A6014
:1026A00002689368426943EA822203689A6070472D
:1026B000002301400100000F014600208A6A8B6957
:1026C000CBB932B1012A0DD0022A03D0032A10D18E
:1026D0000EE000BFCB6A03F08073B3F1807F00D1BE
:1026E000012007E0CB6AB3F1C07F00D1012001E0F7
:1026F00000E000BF34E08B69B3F5005F1AD132B15E
:10270000012A07D0022A03D0032A11D10AE000BF10
:1027100001200EE0CB6A03F08073B3F1807F00D11B
:10272000012006E0CB6AB3F1C07F00D1012000E0B8
:1027300000BF15E032B1012A05D0022A04D0032AD5
:102740000CD103E000BF00BF012008E0CB6A03F01A
:102750008073B3F1807F00D1012000E000BF00BF93
:10276000704700000146087810381823B0FBF3F2D8
:102770000848805CC865032A05D908686FF309001A
:10278000001D886503E008686FF309008865886D9F
:1027900070470000222C00082DE9F84F04462068FD
:1027A000006920F44050E16808432168086121690C
:1027B000A068084361690843E16908430090206804
:1027C000C06849F20C618843009908432168C860D9
:1027D0002068406920F44070A1690843216848617D
:1027E00076492068884203D075492068884203D121
:1027F000FEF746FE814602E0FEF732FE8146E069C2
:10280000B0F5004F6CD102206168A0FB0150034677
:102810001920A9FB007001462A463846FDF724FD21
:102820006421B0FBF1F04FEA001A02206168A0FBBE
:1028300001510B461920A9FB00712A463846FDF7C5
:1028400013FD834602206168A0FB01500346192056
:10285000A9FB00712A463846FDF706FD6421B0FB4E
:10286000F1F000EBC00101EB0010ABEB8000322176
:1028700001EBC0006421B0FBF1F000F0F8000AEBBE
:10288000400A02206168A0FB015003461920A9FB01
:10289000007001462A463846FDF7E6FC83460220D2
:1028A0006168A0FB015003461920A9FB00712A466C
:1028B0003846FDF7D9FC6421B0FBF1F000EBC00114
:1028C00001EB0010ABEB8000322101EBC000642172
:1028D000B0FBF1F000F007005044216888606AE026
:1028E00004206168A0FB015003461920A9FB007079
:1028F00001462A463846FDF7B7FC82460420616847
:10290000A0FB015003461920A9FB007001462A468E
:102910003846FDF7A9FC6421B0FBF1F000EBC001E3
:1029200001EB0010AAEB8000322101EB00106421C2
:10293000B0FBF1F000F0F00A04206168A0FB017028
:1029400003461920A9FB00513A462846FDF78CFCA6
:102950006421B0FBF1F00AEB001A04206168A0FBCF
:1029600001510B461920A9FB00712A463846FDF794
:102970007BFC834604206168A0FB015003461920BC
:10298000A9FB007001462A463846FDF76DFC64211C
:10299000B0FBF1F000EBC00101EB0010ABEB8000ED
:1029A000322101EB00106421B0FBF1F000F00F00C8
:1029B000504421688860BDE8F88F00000010014095
:1029C00000140140F8B504460025002694F84200A2
:1029D000222872D1A068B0F5805F0BD1206948B978
:1029E000A66A20684068C0F308003080A06A801C96
:1029F000A06214E0A56AA068B0F5805F03D0A0686B
:102A000028B9206918B920684068287004E0206857
:102A1000406800F07F002870A06A401CA062E08D32
:102A2000401E80B2E085002845D12068C06820F0B3
:102A300020002168C8602068C06820F48070216888
:102A4000C8602068406920F00100216848612020AA
:102A500084F8420000206063206B012825D100200B
:102A6000206300BF00BF21680C3151E8001F21F036
:102A7000100021680C3141E80002002AF3D100BFA8
:102A80002068006800F01000102809D100BF002065
:102A9000009020680068009020684068009000BFA7
:102AA000A18D2046FFF729F902E02046FFF756FBEB
:102AB0000020F8BD01E00020FBE70220F9E7014615
:102AC00091F84100212828D18868B0F5805F0BD1AA
:102AD000086948B90A6A1088C0F308000B68586092
:102AE000086A801C086205E00B6A581C08621878A6
:102AF0000B685860C88C401E80B2C88458B90868FA
:102B0000C06820F080000B68D8600868C06840F09A
:102B100040000B68D860002070470220FCE700BF2F
:102B200000BF02680C3252E8002F22F49071026854
:102B30000C3242E80013002BF3D100BF00BF00BFEE
:102B40000268143252E8002F22F0010102681432A8
:102B500042E80013002BF3D100BF016B01290ED115
:102B600000BF00BF02680C3252E8002F22F01001B3
:102B700002680C3242E80013002BF3D100BF202181
:102B800080F8421000210163704710B504462068A8
:102B9000C06820F040002168C860202084F841000F
:102BA0002046FFF7DCFA002010BD70B50446A56B87
:102BB0000020E8852846FFF7A1F870BD10B5002871
:102BC00004DB0A07130E054A135406E00A07140E25
:102BD000034A00F00F031B1FD45410BD00E400E0B3
:102BE00018ED00E002480068C0F3022070470000C2
:102BF0000CED00E0FEF7A0FAFFF756FCFFF72CFB08
:102C0000FFF70EFBFFF7AEFAFFF7E4FAFFF796FBCC
:102C1000FFF76EFB00BFFEE74FF04070E1EE100AD9
:102C20007047000610160006101600000000000095
:102C30000000010203040607080900000000010269
:102C400003040000642C00080000002010000000B5
:102C5000C4010008742C000810000020C007000008
:102C6000E00100080000000010000000010000006A
:042C70000024F40048
:040000050800018965
:00000001FF
