:020000040800F2
:10000000E808002029020008811B0008151A0008D2
:10001000191B000817040008E51C00080000000078
:10002000000000000000000000000000C31C0008E9
:100030003104000800000000C11C0008C51C0008B5
:10004000430200084302000843020008430200087C
:10005000430200084302000843020008430200086C
:10006000430200084302000843020008430200085C
:100070002504000843020008430200084302000868
:10008000430200084302000843020008430200083C
:100090001904000843020008430200084302000854
:1000A000430200084302000843020008430200081C
:1000B000430200084302000843020008430200080C
:1000C00043020008430200084302000843020008FC
:1000D000430200084302000843020008D91C00083C
:1000E00043020008430200084302000843020008DC
:1000F00043020008430200084302000843020008CC
:1001000043020008430200084302000843020008BB
:1001100043020008430200084302000843020008AB
:10012000430200084302000843020008430200089B
:10013000430200084302000843020008430200088B
:10014000430200084302000843020008430200087B
:10015000430200084302000843020008430200086B
:10016000430200084302000843020008430200085B
:100170004302000843020008430200080000000098
:10018000430200084302000800F002F800F03CF8C7
:100190000AA090E8000C82448344AAF10107DA45E2
:1001A00001D100F031F8AFF2090EBAE80F0013F0F8
:1001B000010F18BFFB1A43F001031847BC210000D0
:1001C000DC210000103A24BF78C878C1FAD8520761
:1001D00024BF30C830C144BF04680C6070470000C1
:1001E0000023002400250026103A28BF78C1FBD840
:1001F000520728BF30C148BF0B6070471FB502F0DF
:10020000A6F81FBD10B510BD00F0CFF81146FFF7DE
:10021000F5FF02F063F800F0EDF803B4FFF7F2FF2A
:1002200003BC00F0F1F80000094880470948004786
:10023000FEE7FEE7FEE7FEE7FEE7FEE7FEE7FEE796
:10024000FEE7FEE704480549054A064B70470000F3
:10025000C91C000889010008E8020020E808002005
:10026000E8040020E804002053EA020C00F0698052
:100270002DE9F04B4FF00006002B1FBFB3FA83F5BA
:1002800003FA05F424FA05F65E4012BF1643B2FAEB
:1002900082F502FA05F4C5F120051EBF22FA05FC1D
:1002A00044EA0C04203556EA044C4FEA144418BFC3
:1002B000641C4FF000084FF00009904271EB030CF2
:1002C00039D3002919BFB1FA81F701FA07F6B0FA5C
:1002D00080F700FA07F6C7F120071EBF20FA07FCD7
:1002E00046EA0C062037B6FBF4FCA7EB0507103FE7
:1002F00007F01F0BCBF120060CFA0BFB2CFA06F6CD
:1003000044BFB3460026202FA4BF5E464FF0000B2B
:100310005BEA060C08BF4FF0010B19EB0B09ABFBB6
:10032000027C48EB0608C01B06FB02CC0BFB03CC8F
:1003300071EB0C01C1E70B46024641464846BDE859
:10034000F08B13B54FF000004FF00001AFF30080C9
:10035000BDE81C4070474FF0000200B513469446BC
:100360009646203922BFA0E80C50A0E80C50B1F10D
:100370002001BFF4F7AF090728BFA0E80C5048BF21
:100380000CC05DF804EB890028BF40F8042B08BFBF
:10039000704748BF20F8022B11F0804F18BF00F8BB
:1003A000012B7047704770477047754600F028F87A
:1003B000AE4605006946534620F00700854618B052
:1003C00020B5FFF73FFFBDE820404FF000064FF09B
:1003D00000074FF000084FF0000B21F00701AC467A
:1003E000ACE8C009ACE8C009ACE8C009ACE8C00999
:1003F0008D4670470446AFF300802046FFF70DFF9F
:10040000004870478802002001491820ABBEFEE773
:10041000260002007047FEE7014800F004B9000022
:1004200018000020014800F059BB0000880000209F
:10043000704772B6FEE790F82020012A07D0022A02
:1004400005D0416A41F48021416201207047006873
:1004500042690A43426100207047F0B590F820508D
:100460000468A468012D05D0022D03D0416A41F42F
:1004700080214DE014F0406F01D1E50045D5C4F373
:1004800001640125A5401D608D684FF4C0739DB1C6
:10049000CE6835434E6845EAC605066803EB041787
:1004A000F5514FF4C275076805EB04150E697E51CE
:1004B000097D012905D009E00E88CD6845EA465539
:1004C000EBE701684E5946F480764E511179D2F827
:1004D00005504FF4C67641EA0521056806EB04167F
:1004E000A9511178D2F801204FF4C47541EA0221D4
:1004F000026805EB04155151006803EB04114258E2
:1005000042F0010242500020F0BD416A41F4001166
:1005100041620120F0BD000010B590F82020012AB2
:1005200007D0022A05D0416A41F4802141620120AE
:1005300010BD3B48D0F8002242F00102C0F8002272
:10054000D0F8002222F47C52C0F80022D0F8002219
:100550004B6A42EA0322C0F800220A7D02F01F0320
:1005600001229A40D0F81C329343C0F81C32CB6968
:10057000B3B9D0F80C329343C0F80C328C894B6875
:1005800064F31F434C6900EBC404C4F840320C8987
:100590000B6864F31F434C6900EBC404C4F8443295
:1005A000CB69012B16D1D0F80C321343C0F80C32B2
:1005B0000C884B6864F31F434C6900EBC404C4F817
:1005C00040320C89CB6864F31F434C6900EBC404D0
:1005D000C4F844328B69002BD0F804320ED0134398
:1005E000C0F804320B69002BD0F8143208D0134342
:1005F000C0F81432096A012904D008E09343EFE7F8
:100600009343F5E7D0F81C121143C0F81C12D0F840
:10061000001221F00101C0F80012002010BD0000FE
:100620000064004070472DE9F05F05460068002433
:100630004669D0F804908768D0F80CB0D0F810A0C4
:10064000D0F81880F10748D0F90714D00121816053
:10065000B80703D5284600F0E0F90CE0780702D58A
:100660004FF4006407E0380702D54FF4805402E0ED
:10067000284600F0D1F9F80516D529684FF48070A6
:100680008860B80503D5284600F0C9F90CE0780564
:1006900002D544F4005407E0380502D544F4804400
:1006A00002E0284600F0BAF9F80316D529684FF49D
:1006B00080308860B80303D5284600F0B2F90CE01A
:1006C000780302D544F4004407E0380302D544F42B
:1006D000803402E0284600F0A3F9300707D55FEA2E
:1006E000CB6004D52968102044F40074C8607007FA
:1006F0004FF0080707D55FEA0B7004D52868C7607C
:10070000284600F057F9B00706D52868C06880076A
:1007100002D0284600F04FF9700607D55FEACA609C
:1007200004D52968102044F480640861B00607D518
:100730005FEA0A7004D528680761284600F03CF992
:10074000F00606D528680069800702D0284600F028
:1007500034F9B00308D55FEAC96005D529681020CF
:100760004860284600F02AF9F00307D55FEA0970CF
:1007700004D528684760284600F054F9300446D56F
:100780005FEA497040D5F00504D55FEAC87001D032
:1007900044F00104B00504D55FEA887001D544F047
:1007A0000204700504D55FEA487001D544F00404E2
:1007B000300529D518F0700F26D008F070004028B9
:1007C00015D006DC102809D020280AD0302816D1F0
:1007D0000AE050280ED0602811D10EE044F0080441
:1007E0000DE044F010040AE044F0200407E044F077
:1007F000400404E044F0800401E044F4807428687C
:10080000816921F070018161296804204860002C11
:1008100005D0686A204368622846FFF703FFBDE8F9
:10082000F09F70B5040003D094F8200010B104E0EC
:10083000012070BD204600F081F82068016841F079
:100840000101016000F0B2FB0546052604E000F05E
:10085000ADFB401B0A2811D820684068C007F6D0BD
:100860002068016821F00201016000F09FFB05464D
:100870000BE000F09BFB401B0A2806D9606A40F49D
:100880000030606284F82060D2E72068406880070A
:10089000EFD4207E0128206801683DD021F080013E
:1008A0000160607E01282068016838D021F0400195
:1008B0000160A07E01282068016833D021F020016A
:1008C0000160E07E0128206801682ED041F010010F
:1008D0000160207F01282068016829D021F00801EB
:1008E0000160607F01282068016824D021F00401A4
:1008F0000160D4E902010843D4E90412114308431A
:100900006168491E08432168C861002060620120B7
:1009100084F82000002070BD41F08001C0E741F064
:100920004001C5E741F02001CAE721F01001CFE7FF
:1009300041F00801D4E741F00401D9E710B586B0D1
:10094000044614216846FFF706FD174920688842CF
:1009500027D116480021026842F000720260006848
:1009600000F00070059011481038026842F008024B
:1009700002600068022200F0080005900320CDE923
:100980000210CDE90002092004906946084800F0F1
:1009900015FA00221146142000F076FB142000F016
:1009A00065FB06B010BD0000006400404038024006
:1009B000000C024070477047704770477047000056
:1009C00070B5044690F82000012804D0606A40F415
:1009D0000020606218E0022084F82000206801688E
:1009E00021F00101016000F0E1FA05460EE000BFD0
:1009F00000F0DCFA401B0A2808D9606A40F4003095
:100A00006062052084F82000012070BD20684068E5
:100A1000C007EDD1606270BD704770477047704786
:100A20007047704770472DE9F0410446876D00F02C
:100A3000BDFA064694F835000025022806D080202D
:100A4000606584F834500120BDE8F08120680168B9
:100A500021F0160101602068416921F080014161A7
:100A6000206C08B9A06C20B12068016821F0080151
:100A700001602068016821F0010101600CE000F0D4
:100A800095FA801B052807D920206065032084F88B
:100A9000350084F83450D7E720680068C007EED1ED
:100AA00094F85C103F208840B860012084F835003D
:100AB00084F834500020C7E790F83510022903D09D
:100AC0008021416501207047052180F835100068BC
:100AD000016821F001010160002070472DE9F84311
:100AE00004464FF00009CDF8009063484FF41651CA
:100AF000A56D0068B0FBF1F72E6894F85C10082033
:100B000000FA01F131420FD021680A6852070BD573
:100B10000A6822F004020A6094F85C108840A86019
:100B2000606D40F00100606594F85C104FF00108C2
:100B300008FA01F0304208D021684969090604D555
:100B4000A860606D40F00200606594F85C100420BD
:100B50008840304208D021680968890704D5A86018
:100B6000606D40F00400606594F85C1010208840CF
:100B7000304218D021680968090714D5A860206898
:100B80000168490304D50068000308D5A16C07E09B
:100B90000168C90503D4016821F008010160216CD6
:100BA00009B12046884794F85C10202088403042E4
:100BB00031D021680968C9062DD5A86094F83500A0
:100BC00005282068016806D0490347D5006800035E
:100BD0001DD4616C1CE021F01601016020684169A0
:100BE00021F080014161206C08B9A06C20B120681F
:100BF000016821F00801016094F85C103F208840F2
:100C0000A86084F8358084F83490216D1FE0E16B92
:100C100009B120468847606D00282BD0606DC00761
:100C200014D0052084F835002068016821F0010106
:100C300001600098401C0090B84203D8206800680A
:100C4000C007F6D184F8358084F83490E16C00292F
:100C500010D001B02046BDE8F04308470168C9053F
:100C6000D5D4016821F01001016084F8358084F842
:100C70003490CCE7BDE8F8830C0000202DE9F0416A
:100C8000044600F093F906465CB1022084F8350072
:100C9000002584F834502068016821F001010160CA
:100CA0000DE00120BDE8F08100F080F9801B0528EF
:100CB00005D920206065032084F83500F2E720681C
:100CC0000068C007F0D12268116820480140D4E9CB
:100CD00001031843D4E903363343184363691843C7
:100CE000A3691843E3691843236A18430843616AF8
:100CF000042903D1D4E90B13194308431060206879
:100D00004069666A20F0070130460E430127042837
:100D10000CD1A06A0643E06A40B1204601F07AF99E
:100D200020B14020606584F83570BAE720684661DC
:100D3000204601F099F994F85C203F2191408160B0
:100D4000656584F835700020ACE700003F8010F046
:100D500070B5044690F83400002501280CD001201D
:100D600084F8340094F835600020012E06D084F811
:100D700034000225284670BD022070BD022684F88A
:100D800035606065204601F031F92068016841F066
:100D900001010160EEE7000070B5044600F006F9BD
:100DA0000546601C02D004480078044400F0FEF8B8
:100DB000401BA042FAD370BD000000202DE9F84F7F
:100DC000DFF8BCA10022012503264FF00F090AF12C
:100DD000040BAAF1040E00BF0B6805FA02F42340CD
:100DE000A34270D10F7907F00307012F01D0022F22
:100DF00016D187684FEA420806FA08FC27EA0C0772
:100E0000D1F80CC00CFA08FC4CEA070CC0F808C07A
:100E10004768A7430C79C4F3001494403C434460F2
:100E20000C79E443A4070AD0C4684FEA420C06FADE
:100E30000CF7BC438F6807FA0CF72743C7600C799F
:100E400004F00304022C12D1D40800EB840CDCF86B
:100E500020405707FF0E09FA07F824EA0804D1F8E2
:100E6000108008FA07F848EA0408CCF820800468E3
:100E70004FEA420C06FA0CF7BC430F7907F0030760
:100E800007FA0CF7274307604C6814F4403F70D012
:100E90003C4C276847F480472760246822F003070A
:100EA00004F480440094384C07EB040CDCF8084848
:100EB00097074FEA177809FA08F7BC43334FB8424F
:100EC00002D1002724E054E0314FB84201D101277C
:100ED0001EE0304FB84201D1022719E02E4FB84230
:100EE00001D1032714E02D4FB84201D104270FE0B0
:100EF0002B4FB84201D105270AE02A4FB84201D151
:100F0000062705E0284FB84201D1072700E008274F
:100F100007FA08F72743CCF80878DAF80040574674
:100F2000D1F804C09C435FEACC2C00D51C433C6044
:100F3000DBF800405F46D1F804C09C435FEA8C2C8C
:100F400000D51C433C60DEF800407746D1F804C071
:100F50009C435FEA8C3C00D51C433C60084F083F33
:100F60003C68D1F804C09C435FEACC3C00D51C43EC
:100F70003C60521C102AFFF42FAFBDE8F88F000030
:100F8000083C01404438024000300140000002406B
:100F90000004024000080240000C02400010024021
:100FA0000014024000180240001C02400148806802
:100FB0007047000000000020024881680278114458
:100FC00081607047000000200B4810B5016841F4B3
:100FD00000710160016841F480610160016841F4C1
:100FE00080710160032000F06FF80F2000F006F818
:100FF00000F024F8002010BD003C024070B50D4DFB
:1010000004464FF47A712878B1FBF0F00A49096878
:10101000B1FBF0F000F00CFB48B9102C07D2002215
:101020002146501E00F030F800206C6070BD012099
:1010300070BD0000000000200C0000200A4808B528
:10104000016841F480410160006800F48040009034
:101050000548001F016841F080510160006800F000
:101060008050009008BD000044380240002809DB91
:1010700000F01F02012191404009800000F1E020B2
:10108000C0F8001170470000F0B40E4B1B680C460E
:10109000C3F30223C3F10705042D00D90425191D4C
:1010A000072901D2002300E0DB1E012606FA05F124
:1010B000491E214099409E40761E16403143F0BCA7
:1010C00001F0FBB80CED00E0064900F007020868EB
:1010D0004FF6FF03184040EA0220034A104308601D
:1010E000704700000CED00E00000FA052DE9F04724
:1010F0000E46050065D0DFF81481D8F80000F7B27D
:1011000000F00700B04207D288F80070D8F800005D
:1011100000F00700B04254D128683D4C810712D539
:10112000400703D5206840F4E0502060287800078D
:1011300003D5206840F4604020602068A96820F052
:10114000F000084320602878C0072DD03049686837
:101150000839012812D0022813D0032811D00968B9
:10116000890700292DDA216821F00301014321605C
:10117000FFF71CFF814641F2883A0EE009688903B7
:10118000EFE709688901ECE7FFF710FFA0EB090121
:10119000514502D90320BDE8F0872068696800F056
:1011A0000C00B0EB810FEFD1D8F80010404601F0F1
:1011B0000701B14207D90770006800F00700B0428C
:1011C00001D00120E7E72878400705D52068E968C5
:1011D00020F4E050084320602878000706D52068F6
:1011E000296920F4604040EAC100206000F038F82E
:1011F0002168084AC1F30311515CC84006490860E0
:1012000006480068FFF7FAFE0020C4E7003C0240F1
:1012100008380240602300080C0000200400002071
:101220000448054900680968044AC1F38221515CF9
:10123000C84070470C0000200838024070230008A6
:101240000448054900680968044AC1F34231515C09
:10125000C84070470C000020083802407023000886
:10126000154810B5006810F00C02144813D014494A
:10127000042A0FD0082A0ED10F4C241F226823689D
:1012800002F03F025B0207D52068C0F38810A0FB84
:10129000010106E0084610BD2168C1F38811A1FBD9
:1012A00000010023FEF7E0FF2168C1F30141491C62
:1012B0004900B0FBF1F010BD083802400024F400F2
:1012C000001BB7002DE9F84F04006ED02078DFF83E
:1012D0004C93C007A9F104054AD009F10400016844
:1012E000C1F38101012908D00068C0F38100022800
:1012F0000AD1D9F80000400206D52868800337D506
:1013000060680028E1D033E06068B0F5803F10D01D
:10131000B0F5A02F286810D020F48030286028680D
:1013200020F4802028606068A8B1FFF73FFE0646E1
:101330000DE0286840F48030F4E740F48020286015
:10134000F7E700BFFFF732FE801B642873D82868D8
:101350008003F7D50CE0FFF729FE064605E000BF45
:10136000FFF724FE801B6428F0D828688003F7D498
:101370002078DFF8AC8280074FF0000A3ED5A748FE
:10138000001D016811F00C0F08D00068C0F3810047
:1013900002280BD1D9F80000400207D42868800742
:1013A00016D5E068012800D112E033E1E068B8B159
:1013B0000120C8F80000FFF7F9FD064605E000BF70
:1013C000FFF7F4FD801B0228C0D828688007F7D5F6
:1013D0002868216920F0F80040EAC10028600DE08B
:1013E000C8F800A0FFF7E2FD064604E0FFF7DEFDC7
:1013F000801B02281FD828688007F7D420780007B0
:1014000022D5864F87486169703771B1012101602B
:10141000FFF7CCFD064604E0FFF7C8FD801B02285D
:1014200009D838688007F7D50EE0C0F800A0FFF7AC
:10143000BDFD064605E082E0FFF7B8FD801B0228EF
:101440007DD838688007F7D42078400768D5DFF862
:10145000CCB100270BF13C0BDBF80000C0000BD433
:10146000DBF8001041F08051CBF80010DBF80000F1
:10147000012700F0805000906B4E3068C00510D4FA
:10148000306840F480703060FFF790FD009005E018
:10149000FFF78CFD0099401A022850D83068C0052B
:1014A000F6D55E4EA0686C3601280FD0052830684E
:1014B00010D020F001003060306820F0040030606F
:1014C000A068B8B1FFF772FD00900FE0306840F0FF
:1014D0000100F4E740F004003060F7E7FFF766FD35
:1014E0000099411A41F28830814266D830688007FD
:1014F000F4D50EE0FFF75AFD009007E0FFF756FD28
:101500000099411A41F28830814256D830688007EC
:10151000F4D42FB1DBF8001021F08051CBF800108B
:10152000A069C8B33D49091D0968C1F381010229B9
:101530004AD00228504607D0C8F8600000E03CE0DE
:10154000FFF734FD04463BE04746C8F86000FFF76C
:101550002DFD064605E000BFFFF728FD801B022891
:101560002BD828688001F7D4D4E907010843A16A81
:101570002E4A490802EB0141626A41EA821108439E
:1015800094F82C1040EA0161C9F800100120386677
:10159000FFF70CFD044606E03EE000BFFFF706FD46
:1015A000001B022809D828688001F7D534E000BF65
:1015B000FFF7FCFC001B022802D90320BDE8F88FCE
:1015C00028688001F4D427E00128F7D0D9F800007A
:1015D000E26900F4800191421CD1226A00F03F01CF
:1015E000914217D147F6C071626A0140B1EB821F88
:1015F00010D1A26A4FF0FF3300F4403103EB5202E6
:10160000B1EB024F06D194F82C1000F07060B0EBF3
:10161000016F01D00120D1E70020CFE7043802405C
:1016200000004742800E4742007000400000FFFF6C
:1016300010B5401EB0F1807F01D3012010BD4FF0E6
:10164000E02460610F21601700F037FE0020A061E8
:1016500007202061002010BD70477047F8B5016871
:1016600004460868CA684B6910F00F0F4FF0000578
:101670005AD003F0010602F49077374365D0C107D2
:1016800005D0D10503D5616C41F0010161644107CA
:1016900005D5D90703D0616C41F00201616481076F
:1016A00005D5D90703D0616C41F0040161640107DD
:1016B00007D502F02001314303D0616C41F00801ED
:1016C0006164616C00293BD0800604D5900602D588
:1016D000204600F063FD20684069616CC0F3801013
:1016E00001F00801014320462BD000F0B8FD20682E
:1016F0004069400621D52068143050E8001F21F0D1
:10170000400140E80012002AF5D1E06BA8B172490F
:101710000165E06BFFF7D0F9002811D0E06B016D97
:1017200001B0BDE8F040084783060ED593060CD5FE
:101730002046BDE8F84000F031BD2046FFF78DFFA0
:10174000F8BDFFF78AFF6564F8BD266B2023012EE4
:101750007ED1C6067CD5D6067AD508684868009042
:1017600048694FF0020640064DD5E26B10684068AC
:101770004FF480770004000C3AD0A18D814237D914
:10178000E085D069B8422DD020680C3050E8001FA9
:1017900021F4807140E80012002AF5D1206814304D
:1017A00050E8001F21F0010140E80012002AF5D1A5
:1017B0002068143050E8001F21F0400140E800127A
:1017C000002AF5D184F84230256320680C3050E8B7
:1017D000001F21F0100140E80012002AF5D1E06B53
:1017E000FFF721F96663A08DE18D401A81B206E012
:1017F000A18D8142A8D1D069B842A5D166632046A7
:10180000FFF72AFFF8BDA08DE18D401A81B2E08D6F
:101810000028F7D00029F5D020680C3050E8002FC0
:1018200022F4907240E80027002FF5D12068143090
:1018300050E8002F22F0010240E80027002FF5D1E8
:1018400084F84230256320680C3050E8002F00E017
:1018500006E022F0100240E80023002BF3D1CDE790
:1018600005062BD5150629D594F841002128C9D1A4
:10187000A068B0F5805F01D12069B0B1206A411C39
:101880002162216800784860E08C401E0004000C52
:10189000E084B7D12068C16821F08001C160206870
:1018A000C16841F04001C160F8BD206A0088C0F302
:1018B00008004860206A801C2062E5E74006F3D5F6
:1018C0005006F1D5CA68204622F04002CA6084F86A
:1018D000413000F09EF8F8BDAD22000870B504005C
:1018E00004D094F84100002510B106E0012070BD3D
:1018F00084F84050204600F023F8242084F841006A
:101900002068C16821F40051C160204600F0C0FB8E
:101910002068016921F4904101612068416921F04A
:101920002A0141612068C16841F40051C1606564C9
:10193000202084F8410084F842006563002070BDD7
:101940002DE9F04786B0064614216846FEF703FDF0
:101950002A49306888424ED129480025016841F45F
:1019600080210160006800F4802005902448103830
:10197000016841F0040101600068022400F00400E5
:1019800005904FF40060CDE9000402AA03274FF050
:101990000708DFF870A082E8900169465046FFF71B
:1019A0000DFA4FF4806901AACDF8009082E8B001E9
:1019B00069465046FFF702FA144C134820604FF076
:1019C0000060C4E90105C4E9035965613804A561F3
:1019D000C4E9075020466562FFF750F908B1FEF7E9
:1019E00028FDF463002211462720A663FFF74CFB75
:1019F0002720FFF73BFB06B0BDE8F087004800401A
:101A00004038024000080240286002408800002060
:101A100070477047FEE70000104810B50E4901609E
:101A20000321416000214FF410228160C0E90312BC
:101A30004FF4001242610176012242768176C2762D
:101A400001774177FEF7EDFE002803D0BDE8104096
:101A5000FEF7EFBC10BD000000640040180000203D
:101A6000094808B5016841F40011016000680022CE
:101A700000F40010009011460C20FFF705FBBDE8B4
:101A800008400C20FFF7F2BA30380240114808B580
:101A9000016841F001010160016801F0010100915C
:101AA000016841F008010160016801F0080100913E
:101AB000016841F004010160016801F00401009136
:101AC000016841F080010160006800F08000009032
:101AD00008BD0000303802400E4810B50C490160C6
:101AE0004FF4E13141604FF48051816000214FF4A7
:101AF0008062C0E903120C22C0E90521C161FFF731
:101B0000EDFE002803D0BDE81040FEF792BC10BDEA
:101B10000048004040000020FEE7000000B50E4AEB
:101B200040F201210D4800F01BF80C480A4A40F22F
:101B30000221243000F014F80848074A40F203213B
:101B4000483000F00DF80548034A4FF401716C303D
:101B50005DF804EB00F004B815230008280100200C
:101B6000002809D000238361016103779FED030AF8
:101B7000037580ED030A0262704700000000000058
:101B8000FEE7000010B504002DED028BB0EE608A78
:101B9000F0EE408A69D0FFF709FA216BDFED340AD5
:101BA000411A00EE101AB8EE400A80EE201AB5EE87
:101BB000C01AF1EE10FA04D911EE101A2D4A914212
:101BC00001DD9FED2D1A38EEC80AC4ED038A84EDBD
:101BD000048A84ED050AD4ED000A20EE802AD4EDB3
:101BE000070A40EE010AC4ED070AD4ED0A1AF4EE22
:101BF000E10AF1EE10FA06DCF1EE611AF4EEE10A08
:101C0000F1EE10FA01D2C4ED071AD4ED010AD4EDB9
:101C1000071A60EEA10AD4ED061A70EE612A72EE80
:101C2000200AC2EE811AC4ED081A94ED021A21EEC0
:101C3000211A70EE810AC4ED090A94ED0B1AF4EE34
:101C4000C10AF1EE10FA06DCB1EE411AF4EEC10A57
:101C5000F1EE10FA01D284ED091A84ED060A206330
:101C600094ED090ABDEC028B10BD9FED040AF9E763
:101C700000007A44CDCCCC3D6F12833A00000000C6
:101C800010B5040018D0C4ED0A1A84ED0B2A84ECB8
:101C9000030A9FED0A0A84ED030A84ED040A84ED29
:101CA000050A84ED060A84ED070A84ED080A84ED2E
:101CB000090AFFF77BF9206310BD00000000000057
:101CC00070477047FFF778B90248016841F4700126
:101CD0000160704788ED00E00148FFF7BFBC0000DD
:101CE00040000020FEE708B56B46FEF7B6FB08BDD6
:101CF000C0E900120021C160036181600175704775
:101D000030B593B030216846FEF725FB14210CA8AE
:101D1000FEF721FB1D480025016841F0805101605C
:101D2000006800F0805011901948016841F480412A
:101D300001600068022400F48040119001200090AE
:101D4000000401908001CDE9064006200890A820FB
:101D5000CDE9090404200B906846FFF7B3FA08B1F7
:101D600072B6FEE70CA90F2081E831004FF4A050B5
:101D70000F904FF48050109005210CA8FFF7B6F992
:101D8000002801D072B6FEE713B030BD40380240E3
:101D90000070004010B504460F4A00210E208AB0A2
:101DA000944201D1059100E005900122CDE906128F
:101DB00003910491CDE908200091019102916946B7
:101DC0002046FEF7A9FB2046FEF7FAFD0221204639
:101DD000FEF731FB0AB010BD180000202DE9F041DC
:101DE0005F4E2DED048B8EB030789FED5E8A5E4D98
:101DF000D8B90024DFED5D8A9FED5D9AB0EE480A08
:101E000004EB840000EBC40005EB8000B0EE682A10
:101E1000F0EE491AB0EE401AF0EE400AFFF730FF3C
:101E2000641C042CEADB012030705248B0F9021027
:101E300001F11302262A02D8B0EE481A03E000EEA0
:101E4000101AB8EEC01AB0F9001001F11302262AD8
:101E500002D8B0EE480A03E000EE101AB8EEC00A4D
:101E6000B0F9040000F11301262903D900EE900A0D
:101E7000B8EEE08ADFED400A81EE202ADFED3F1A5E
:101E80003F4F002404AEE846C0EE202A22EE211A7D
:101E900022EEA10AC8EE202A62EEA10A71EE002A03
:101EA00062EE611A72EEA02A71EEC01ACDED042A1C
:101EB00070EE412A31EE400A71EEA01A72EEA02AAD
:101EC00030EE200ACDED052ACDED061A8DED070A7C
:101ED00004EBC40007EB8000D0ED000A06EB8400A1
:101EE00090ED000A04EB840000EBC40005EB8000D9
:101EF000FFF748FEBDEEC00A10EE100A28F81400E5
:101F0000641C042CE4DB08230022990108A8FFF7D5
:101F1000EFFEBDF8000002AA010A8DF808108DF846
:101F20000900BDF80200010A8DF80A108DF80B00B7
:101F3000BDF80400010A8DF80C108DF80D00BDF8F5
:101F40000600010A8DF80E108DF80F0008A90D4843
:101F5000FFF7C9FE0EB0BDEC048BBDE8F0810000B8
:101F60001400002000000000B8010020000080469E
:101F700000803B451E0100200000254400409C4598
:101F8000280100201800002038B50020144A01461E
:101F900022F81010401C0428FADB124C1172517206
:101FA0002068026842680092C26842F01002C26073
:101FB00094F84200202812D10B480068A062362015
:101FC000A0856164064A21683623363A091DE06B14
:101FD000FEF7BEFE2068416941F04001416138BD15
:101FE0001E010020400000201000002030B50468D1
:101FF000256825F480252560046863608368402B8C
:10200000036803D099600068C26030BD9A600068C0
:10201000C16030BD10B5014600208B698A6A4FF05F
:10202000C07453B1B3F5005F15D072B1012A0CD062
:10203000022A0AD0032A09D104E01AB1012A06D0E3
:10204000022A03D1C96AC90100D5012010BDC96A9D
:10205000A142FAD010BD002AF7D0012AF2D0022AFC
:10206000F3D0032AF3D010BD01681823CAB2103A86
:10207000B2FBF3F2054B6FF30901032A9B5CC365C6
:1020800000D9091D816508467047000058230008E3
:1020900070B5044600680169E26821F440511143BB
:1020A00001612169A068E26908436169114308433D
:1020B0002168CA6849F20C639A430243CA602068E7
:1020C0004169A26921F4407111434161314920689D
:1020D000884202D03049884202D1FFF7B1F801E0CE
:1020E000FFF79EF8E2690023192164253226B2F534
:1020F000004F626828D0A0FB0101930F9200FEF709
:10210000B3F80146B0FBF5F06FF01802504301EB55
:10211000800006EB0010B0FBF5F000F0F002B1FB20
:10212000F5F002EB0012B1FBF5F06FF01803584325
:1021300001EB800006EB0010B0FBF5F000F00F00A3
:1021400021681044886070BDA0FB010192185B41BA
:10215000FEF78AF80146B0FBF5F00201B1FBF5F09D
:102160006FF01803584301EB800006EBC000B0FB92
:10217000F5F000F0F80002EB4002B1FBF5F0584337
:1021800001EB800006EBC000B0FBF5F000F00700AB
:10219000D6E70000001001400014014008B590F897
:1021A0004210222901D0022008BD82684FF48053DA
:1021B0009A4201D1016921B1816A9A421BD04AB188
:1021C0000AE00268816A5268C2F308020A80816AE2
:1021D000891C08E0026972B10268526802F07F024D
:1021E0000A70816A491C8162C18D491E0904090C6B
:1021F000C18503D01BE002685268F1E70168CA6834
:1022000022F02002CA600168CA6822F48072CA60A3
:1022100001684A6922F001024A61202180F84210D7
:1022200000214163026B012A03D0FFF7F1FB00207C
:1022300008BD016301680C3151E8002F22F0100243
:1022400041E80023002BF5D101680A68D20602D5C7
:102250000A6849680091818DFFF7FEF9E7E7016898
:102260000C3151E8002F22F4907241E80023002B3A
:10227000F5D10168143151E8002F22F0010241E844
:102280000023002BF5D1016B012909D101680C3124
:1022900051E8002F22F0100241E80023002BF5D175
:1022A000202180F8421000210163704710B5806B37
:1022B0000021C185FFF7D1F910BD0907090E0028DB
:1022C00004DB00F1E02080F80014704700F00F00FC
:1022D00000F1E02080F8141D70470000FEF774FE46
:1022E000FFF70EFDFFF7D2FBFFF7BAFBFFF794FBFA
:1022F000FFF7F2FB0648FFF74DFDFFF745FEFFF73E
:102300000DFC00BFFFF76AFD3220FEF745FDF9E73F
:102310001800002010B5040018D04888F3EE030A16
:1023200040BA00B200EE100AB8EEC00A80EE201AE1
:1023300084ED001A888840BA00B200EE100AB8EEA8
:10234000C00A84ED010AFEF731FEA06110BD4FF016
:102350004070E1EE100A70470006101600061016D5
:102360000000000000000000010203040607080945
:102370000000000001020304982300080000002070
:1023800018000000C4010008B02300081800002055
:10239000D0080000E001000801000000100000006B
:1023A000000000000024F400E8000020000000000D
:040000050800018965
:00000001FF
